:020000020000FC
:10000000507265737320746F205363726F6C6C0051
:100010004172746966696369616C2000496E746538
:100020006C6C6967656E63652000526F626F7469FE
:10003000637320004D616368696E65004C65617291
:100040006E696E6720004E657572616C2000239AA0
:10005000259A389A399A3A9A3B9A3D9A5298459AF3
:10006000B0E0E0E0F0E090E078D02D9806B1007FBD
:10007000037008B95AD06CD006B1007F037008B97C
:1000800054D05BD05AD006B1007F037008B94DD070
:1000900054D053D006B1007F027008B946D04DD07D
:1000A0004CD0A8E229D0A6E027D0459808C0990FE7
:1000B00092704A9B9160913011F04AD0F8CFA1E044
:1000C0001BD0A0E819D011D008D0A0EC15D0CE2FAD
:1000D000DF2F0BD0EC2FFD2FEACFB63011F0B39508
:1000E0000895B1E0E0E1F0E008952D9A0590002038
:1000F00011F009D0FACF08952D980A2E04D0A4301B
:10010000D0F726D00895002D02950F7016B1107FFC
:10011000012B08B90AD011D0002D0F7016B1107F35
:10012000012B08B902D009D008952B982B9A000012
:100130000000000000002B9808950FEF0000000061
:100140000A95E1F701E4000000000A95E1F708953F
:1001500012E3F3DF1A95E9F7089524E1F9DF2A9510
:04016000E9F708951E
:00000001FF
