:020000020000FC
:10000000507265737320746F205363726F6C6C0051
:100010004172746966696369616C2000496E746538
:100020006C6C6967656E63652000526F626F7469FE
:10003000637320004D616368696E65004C65617291
:100040006E696E6720004E657572616C2000239AA0
:10005000259A389A399A3A9A3B9A3D9A5298459AF3
:10006000B0E0E0E0F0E02D9806B1007F037008B941
:1000700052D064D006B1007F037008B94CD053D081
:1000800052D006B1007F037008B945D04CD04BD098
:1000900006B1007F027008B93ED045D044D04598E3
:1000A0004A9902C04BD0FCCFA1E01CD0A0E81AD0E6
:1000B00012D008D0A0EC16D0CE2FDF2F0CD0EC2F12
:1000C000FD2FEECFB63019F0B39531960895B1E01B
:1000D000E0E1F0E008952D9A0590002011F009D09C
:1000E000FACF08952D980A2E04D0A430D0F726D048
:1000F0000895002D02950F7016B1107F012308B9E5
:100100000AD011D0002D0F7016B1107F012308B94D
:1001100002D009D008952B982B9A0000000000000F
:1001200000002B9808950FEF000000000A95E1F7FA
:1001300001E4000000000A95E1F7089512E3F3DFFF
:060140001A95E9F708958D
:00000001FF
