:100000000C9434000C9446000C9446000C9446006A
:100010000C9446000C9446000C9446000C94460048
:100020000C9446000C9446000C9446000C94460038
:100030000C9446000C9446000C9446000C94460028
:100040000C9446000C9446000C9446000C94460018
:100050000C9446000C9446000C9446000C94460008
:100060000C9446000C94460011241FBECFEFD8E03C
:10007000DEBFCDBF21E0A0E0B1E001C01D92AD30F8
:10008000B207E1F70E9460000C94B6000C940000E7
:1000900090910001292F30E0F901EB5FFE4F808342
:1000A000F901E75FFE4F6083F901EF5FFE4F408388
:1000B000943010F49F5F01C090E090930001089588
:1000C000C0E006C040E060E080E00E944800CF5FF2
:1000D000C430C0F388E30E94760080E00E94A40050
:1000E00081E00E94A4000E949C00FFCF94EA9093BC
:1000F000BC009091BC009923E4F79091B900987FDF
:10010000983011F0903191F48093BB0084E8809393
:10011000BC008091BC008823E4F78091B900887FFF
:10012000883131F0803431F480E0089581E0089521
:1001300080E0089581E0089584E98093BC00809177
:10014000BC0084FDFCCF08958093BB0084E88093BD
:10015000BC008091BC008823E4F78091B900887FBF
:10016000883211F081E0089580E00895F894FFCF7F
:00000001FF
