:100000000C9434000C9451000C9451000C94510049
:100010000C9451000C9451000C9451000C9451001C
:100020000C9451000C9451000C9451000C9451000C
:100030000C9451000C9451000C9451000C945100FC
:100040000C9451000C9451000C9453000C945100EA
:100050000C9451000C9451000C9451000C945100DC
:100060000C9451000C94510011241FBECFEFD8E026
:10007000DEBFCDBF11E0A0E0B1E0E0E9F4E002C0F6
:1000800005900D92A434B107D9F721E0A4E4B1E0C2
:1000900001C01D92A439B207E1F70E944E010C94F1
:1000A00046020C9400001F920F920FB60F9211247B
:1000B0008F93EF93FF938091C600E0914601F0E0AB
:1000C000E45BFE4F8083809146018F3319F41092D8
:1000D000460105C0809146018F5F80934601FF91E4
:1000E000EF918F910F900FBE0F901F9018958091F8
:1000F00046018093470108951092C50087E68093DA
:10010000C40088E98093C10086E08093C2008AB170
:1001100082608AB98AB18E7F8AB9109246011092A4
:10012000470108959091C00095FFFCCF8093C600D1
:100130000895FC0107C09091C00095FFFCCF319657
:100140008093C60080818111F6CF08959091470178
:10015000809146019817D1F3E0914701F0E0E45B0C
:10016000FE4F8081909147019F3319F4109247010F
:100170000895909147019F5F9093470108952091C2
:1001800047019091460181E0291380E00895909104
:100190004501292F30E0F901E457FE4F8083F90132
:1001A000E057FE4F6083F901E85BFE4F40839430D7
:1001B00010F49F5F01C090E09093450108951F9354
:1001C000CF93DF9388E30E94F20180E00E94200237
:1001D00081E00E9420020E94180288E30E94F2013E
:1001E0008CE10E94200289E30E94F2010E94320207
:1001F0000E943202C82F0E9432020E943202D82F7F
:100200000E9432020E943C02182F88E30E94F201F1
:1002100080E00E94200280E00E9420020E941802DA
:10022000412F6D2F8C2F0E94C700DF91CF911F911E
:1002300008951F93CF93DF9388EE0E94F20182E02E
:100240000E94200280E00E94200210E014C0C12F12
:10025000D0E0FE01E457FE4F80810E942002FE01A3
:10026000E057FE4F80810E942002C85BDE4F8881EC
:100270000E9420021F5F143050F30E94180288EE83
:100280000E94F20182E00E94200280E80E94200287
:100290000E941802DF91CF911F9108950E947C0067
:1002A000C0E006C040E060E080E00E94C700CF5F91
:1002B000C430C0F387B1816087B9789480E091E061
:1002C0000E94990088E30E94F20180E00E942002CF
:1002D00081E00E9420020E9418020E94BF000E943A
:1002E000A600C82F8235D1F028F4833439F1873441
:1002F000E9F006C08736D1F0823781F08336F1F01D
:100300008FE091E00E9499008C2F0E9492008AE376
:1003100091E00E9499000E94770056C040E060E0A2
:100320008FEF0E94C7000E9419014EC040E06FEF9E
:1003300080E00E94C7000E94190146C085E191E05B
:100340000E9499000F2EFCE8EF2EF1E0FF2EF02D19
:10035000F701808190E00E9499008FE191E00E9476
:10036000990000E911E0F801808190E00E94990075
:100370008FE191E00E949900C8E4D1E0888190E08B
:100380000E9499008AE391E00E94990082E291E044
:100390000E949900F701818190E00E9499008FE10D
:1003A00091E00E949900F801818190E00E949900FB
:1003B0008FE191E00E949900898190E00E9499006C
:1003C0008AE391E00E94990080914401813009F014
:1003D00084CF8CE291E00E9499000E94DF000E948D
:1003E00019017BCF94EA9093BC009091BC009923B3
:1003F000E4F79091B900987F983011F0903191F422
:100400008093BB0084E88093BC008091BC0088236B
:10041000E4F78091B900887F883131F0803431F47D
:1004200080E0089581E0089580E0089581E00895D6
:1004300084E98093BC008091BC0084FDFCCF0895CA
:100440008093BB0084E88093BC008091BC0088232B
:10045000E4F78091B900887F883211F081E0089537
:1004600080E0089584EC8093BC008091BC008823D8
:10047000E4F78091BB00089584E88093BC008091EC
:10048000BC008823E4F78091BB000895F894FFCF67
:1004900074657374206D6573736167650D0A00453B
:1004A00063686F2000436F6C6F7220313A20002C1C
:1004B0002000436F6C6F7220323A20000950757330
:1004C000682044657465637465640D0A0070757313
:0404D000680D0A00A9
:00000001FF
