:100000000C9466000C9483000C9483000C94830081
:100010000C9483000C9483000C9483000C94830054
:100020000C9483000C9483000C9483000C94830044
:100030000C9483000C9483000C9483000C94830034
:100040000C9483000C9483000C9485000C94830022
:100050000C9483000C9483000C9483000C94830014
:100060000C9483000C94830077027F029502950222
:1000700095026F02950295029502950295029502EE
:10008000950295025F029502670290029502950221
:1000900095029502950295029502950295029502A8
:1000A000950295029502950277027F0295029502CC
:1000B00095026F02950295029502950295029502AE
:1000C000950295025F0295026702900211241FBEFD
:1000D000CFEFD8E0DEBFCDBF12E0A0E0B1E0E0EFAF
:1000E000FBE002C005900D92A832B107D9F722E0DB
:1000F000A8E2B2E001C01D92A837B207E1F70E9462
:10010000F0010C94F6050C9400001F920F920FB6AC
:100110000F9211248F93EF93FF938091C600E0918B
:100120002A02F0E0E05DFD4F808380912A028F3348
:1001300019F410922A0205C080912A028F5F8093E1
:100140002A02FF91EF918F910F900FBE0F901F9099
:10015000189580912A0280932B0208951092C50071
:1001600087E68093C40088E98093C10086E080938D
:10017000C2008AB182608AB98AB18E7F8AB9109230
:100180002A0210922B0208959091C00095FFFCCF97
:100190008093C6000895FC0107C09091C00095FFB0
:1001A000FCCF31968093C60080818111F6CF0895EF
:1001B00090912B0280912A029817D1F3E0912B02A3
:1001C000F0E0E05DFD4F808190912B029F3319F4A8
:1001D00010922B02089590912B029F5F90932B0217
:1001E000089520912B0290912A0281E0291380E04A
:1001F000089590912902292F30E0F901E059FD4F2F
:100200008083F901EC58FD4F6083F901E45DFD4FF7
:1002100040839F5F90932902943010F0109229023E
:1002200008951F93CF93DF9380E091E00E94CB006D
:1002300080E70E94B202882329F089E191E00E94C0
:10024000CB0037C087E10E94E00281E70E94B20242
:100250000E94FC02882329F085E391E00E94CB00F4
:1002600028C080E70E94B202882329F089E191E04A
:100270000E94CB001EC08CE10E94E00281E70E9438
:10028000B2020E94F2020E94F202C82F0E94F20201
:100290000E94F202D82F0E94F2020E94FC02182F44
:1002A0008BE491E00E94CB00412F6D2F8C2F0E9498
:1002B000F900DF91CF911F9108951F93CF93DF93A2
:1002C00088EE0E94B202882329F089E591E00E941D
:1002D000CB002BC082E00E94E00280E00E94E0029E
:1002E00010E014C0C12FD0E0FE01E059FD4F808125
:1002F0000E94E002FE01EC58FD4F80810E94E00266
:10030000C45DDD4F88810E94E0021F5F143050F30E
:100310000E94D80288EE0E94B20282E00E94E002AF
:1003200080E80E94E0020E94D802DF91CF911F91E5
:10033000089580E09FE706C0309902C09F5F01C02A
:1003400091508F5F8B30C0F380912802880F8270AC
:100350008093280299231CF48160809328020895D9
:100360000F931F93CF93DF93CDB7DEB7A0970FB650
:10037000F894DEBF0FBECDBF90E0FC01E45DFD4F01
:100380004081FC01EC58FD4F3081FC01E059FD4FEC
:1003900020811F924F931F923F931F922F9301969C
:1003A0009F938F9382E791E09F938F938E010F5FCE
:1003B0001F4F1F930F930E940C03C8010E94CB0094
:1003C0000FB6F894DEBF0FBECDBFA0960FB6F8945F
:1003D000DEBF0FBECDBFDF91CF911F910F9108956A
:1003E00087B1816087B90E94AE000E94AC02789408
:1003F00089E891E00E94CB002FEF81EE94E021503C
:1004000080409040E1F700C0000080E70E94B20207
:10041000882329F085E991E00E94CB0008C082E0A2
:100420000E94E00281E00E94E0020E94D80280E780
:100430000E94B202882329F085E991E00E94CB0056
:100440000BC080E00E94E00281E00E94E00280E0B8
:100450000E94E0020E94D8024FEF60E08FEF0E94FE
:10046000F90088EE0E94B202882329F080EB91E027
:100470000E94CB0008C082E00E94E00280E80E9457
:10048000E0020E94D80289EC91E00E94CB0088EE45
:1004900091E00E94CB000E9499010E94F10081111D
:1004A00051C00E94D800C82F90E0FC01E254F1092D
:1004B000E233F105D0F5EC5CFF4F0C94060380911C
:1004C00028028F590E94C4008DE00E94C40040E0C1
:1004D00060E08FEF0E94F9000E945D0133C040E0B0
:1004E0006FEF80E00E94F9000E945D012BC04FEF8A
:1004F00060E080E00E94F9000E945D0123C080E07E
:100500000E94B00181E00E94B00182E00E94B0012F
:1005100083E00E94B0018FE691E00E94CB0012C000
:100520000E9411010E945D010DC08FE092E00E94C7
:10053000CB008C2F0E94C4008FE691E00E94CB007C
:100540000E94A90080912802813009F0A4CF86E1A1
:1005500092E00E94CB009FCF1092B90088E980936F
:10056000B800089594EA9093BC009091BC00992340
:10057000E4F79091B900987F983011F0903191F4A0
:100580008093BB0084E88093BC008091BC008823EA
:10059000E4F78091B900887F883131F0803431F4FC
:1005A00080E0089581E0089580E0089581E0089555
:1005B00084E98093BC008091BC0084FDFCCF089549
:1005C0008093BB0084E88093BC008091BC008823AA
:1005D000E4F78091B900887F883211F081E00895B6
:1005E00080E0089584EC8093BC008091BC00882357
:1005F000E4F78091BB00089584E88093BC0080916B
:10060000BC008823E4F78091BB000895EE0FFF1F24
:100610000590F491E02D0994AEE0B0E0E2E1F3E062
:100620000C94CD050D891E8986E08C831A8309837D
:100630008FEF9FE79E838D83AE01475E5F4F6F898B
:10064000788DCE0101960E942E03EF81F885E00F90
:10065000F11F10822E96E4E00C94E905ABE0B0E0C7
:10066000E4E3F3E00C94BF056C017B018A01FC011B
:1006700017821682838181FFCCC1CE0101963C0195
:10068000F6019381F70193FD859193FF81917F019D
:10069000882309F4BAC1853239F493FD859193FF1B
:1006A00081917F01853229F4B60190E00E942505F1
:1006B000E7CF912C212C312CFFE1F315D8F08B32B0
:1006C00079F038F4803279F08332A1F4232D20615F
:1006D0001DC08D3261F0803369F4232D216016C076
:1006E000832D8260382EE32DE4603E2E2AC0F32D48
:1006F000F8601DC037FC2DC020ED280F2A3040F0D7
:100700008E32B9F436FC81C1232D2064322E19C0FB
:1007100036FE06C08AE0989E200D1124922E11C04C
:10072000EAE02E9E200D1124222EF32DF0623F2EA2
:1007300008C08C3621F4832D8068382E02C088369C
:1007400041F4F70193FD859193FF81917F01811120
:10075000B3CF982F9F7D9554933028F40C5F1F4F93
:100760009FE399830DC0833631F0833771F0833571
:1007700009F059C021C0F801808189830E5F1F4FA5
:1007800088248394912C530113C02801F2E04F0E6A
:10079000511CF801A080B18036FE03C0692D70E0C5
:1007A00002C06FEF7FEFC5010E941A054C01820164
:1007B000F32DFF773F2E16C0280122E0420E511C78
:1007C000F801A080B18036FE03C0692D70E002C040
:1007D0006FEF7FEFC5010E940F054C01F32DF0680C
:1007E0003F2E820133FC1BC0822D90E088169906B3
:1007F000B0F4B60180E290E00E9425052A94F4CF7F
:10080000F50137FC859137FE81915F01B60190E0DB
:100810000E94250521102A9421E0821A9108811452
:10082000910471F7E8C0843611F0893641F5F8017A
:1008300037FE07C060817181828193810C5F1F4FF9
:1008400008C060817181072E000C880B990B0E5F28
:100850001F4FF32DFF763F2E97FF09C0909580958F
:10086000709561957F4F8F4F9F4FF0683F2E2AE024
:1008700030E0A3010E946105882E861845C08537A7
:1008800031F4232D2F7EB22E2AE030E025C0932DA7
:10089000997FB92E8F36C1F018F4883579F0B5C03C
:1008A000803719F0883721F0B0C0E92FE061BE2E03
:1008B000B4FE0DC0FB2DF460BF2E09C034FE0AC08B
:1008C000292F2660B22E06C028E030E005C020E1C6
:1008D00030E002C020E132E0F801B7FE07C06081DD
:1008E0007181828193810C5F1F4F06C0608171818D
:1008F00080E090E00E5F1F4FA3010E946105882EEB
:100900008618FB2DFF773F2E36FE0DC0232D2E7F40
:10091000A22E891458F434FE0BC032FC09C0832D7A
:100920008E7EA82E05C0B82CA32C03C0B82C01C005
:10093000B92CA4FE0FC0FE01E80DF11D80818033AB
:1009400021F49A2D997EA92E09C0A2FE06C0B39467
:10095000B39404C08A2D867809F0B394A3FC11C027
:10096000A0FE06C0B21488F4280C922C9B180EC06E
:10097000B21460F4B60180E290E00E942505B394C1
:10098000F7CFB21418F42B1802C0982C212CA4FE17
:1009900010C0B60180E390E00E942505A2FE17C0BA
:1009A000A1FC03C088E790E002C088E590E0B601B2
:1009B0000CC08A2D867859F0A1FE02C08BE201C0DE
:1009C00080E2A7FC8DE2B60190E00E942505891423
:1009D00038F4B60180E390E00E9425059A94F7CFA1
:1009E0008A94F301E80DF11D8081B60190E00E9428
:1009F00025058110F5CF222009F442CEB60180E210
:100A000090E00E9425052A94F6CFF6018681978111
:100A100002C08FEF9FEF2B96E2E10C94DB05FC0107
:100A20000590615070400110D8F7809590958E0F19
:100A30009F1F0895FC016150704001900110D8F78C
:100A4000809590958E0F9F1F08950F931F93CF93BE
:100A5000DF93FB01238121FD03C08FEF9FEF2CC0AB
:100A600022FF16C0468157812481358142175307E2
:100A700044F4A081B1819D012F5F3F4F31832083DA
:100A80008C93268137812F5F3F4F3783268314C095
:100A90008B01EC01FB010084F185E02D0995892B88
:100AA000E1F6D80116968D919C91179701961796AD
:100AB0009C938E931697CE01DF91CF911F910F914A
:100AC0000895FA01AA27283051F1203181F1E894E4
:100AD0006F936E7F6E5F7F4F8F4F9F4FAF4FB1E031
:100AE0003ED0B4E03CD0670F781F891F9A1FA11D2C
:100AF000680F791F8A1F911DA11D6A0F711D811D2D
:100B0000911DA11D20D009F468943F912AE0269FF1
:100B100011243019305D3193DEF6CF010895462F50
:100B20004770405D4193B3E00FD0C9F7F6CF462F31
:100B30004F70405D4A3318F0495D31FD405241939A
:100B400002D0A9F7EACFB4E0A69597958795779557
:100B50006795BA95C9F700976105710508959B01DE
:100B6000AC010A2E06945795479537952795BA9567
:100B7000C9F7620F731F841F951FA01D08952F9240
:100B80003F924F925F926F927F928F929F92AF921D
:100B9000BF92CF92DF92EF92FF920F931F93CF936A
:100BA000DF93CDB7DEB7CA1BDB0B0FB6F894DEBF01
:100BB0000FBECDBF09942A88398848885F846E8427
:100BC0007D848C849B84AA84B984C884DF80EE8071
:100BD000FD800C811B81AA81B981CE0FD11D0FB67A
:100BE000F894DEBF0FBECDBFED010895F894FFCF9E
:100BF00052656164696E6720636F6C6F7220766105
:100C00006C7565732E2E2E09004661696C65642033
:100C1000746F20636F6E746163742073656E736F9D
:100C200072210D0A00436F6C6F722073656E736FD3
:100C300072206572726F72210D0A005375636365CD
:100C4000737366756C210D0A004661696C656420DA
:100C5000746F20636F6E74616374204C4544210D82
:100C60000A00436F6C6F722025693A2025692C2099
:100C700025692C2025690D0A005374617274696E10
:100C8000672E0D0A004661696C656420746F2061EF
:100C900063636573732073656E736F722E0D0A0044
:100CA0004661696C656420746F206163636573736A
:100CB000204C4544732E0D0A000950726573732051
:100CC0005320746F207265616420696E2061206317
:100CD0006F6C6F722E0D0A0009507265737320439A
:100CE00020746F207072696E74207468652073744C
:100CF0006F72656420636F6C6F72732E0D0A00450E
:100D000063686F3B2000427574746F6E207075735A
:080D10006865642E0D0A000065
:00000001FF
