S01300005465726D50726F6A6563742E73726563A2
S11300000C9434000C9451000C9451000C94510045
S11300100C9451000C9451000C9451000C94510018
S11300200C9451000C9451000C9451000C94510008
S11300300C9451000C9451000C9451000C945100F8
S11300400C9451000C9451000C9453000C945100E6
S11300500C9451000C9451000C9451000C945100D8
S11300600C9451000C94510011241FBECFEFD8E022
S1130070DEBFCDBF11E0A0E0B1E0E2E9FAE002C0EA
S113008005900D92A434B107D9F721E0A4E4B1E0BE
S113009001C01D92A439B207E1F70E9494010C94A7
S11300A047050C9400001F920F920FB60F92112473
S11300B08F93EF93FF938091C600E0914601F0E0A7
S11300C0E45BFE4F8083809146018F3319F41092D4
S11300D0460105C0809146018F5F80934601FF91E0
S11300E0EF918F910F900FBE0F901F9018958091F4
S11300F046018093470108951092C50087E68093D6
S1130100C40088E98093C10086E08093C2008AB16C
S113011082608AB98AB18E7F8AB9109246011092A0
S1130120470108959091C00095FFFCCF8093C600CD
S11301300895FC0107C09091C00095FFFCCF319653
S11301408093C60080818111F6CF08959091470174
S1130150809146019817D1F3E0914701F0E0E45B08
S1130160FE4F8081909147019F3319F4109247010B
S11301700895909147019F5F9093470108952091BE
S113018047019091460181E0291380E00895909100
S11301904501292F30E0F901E457FE4F8083F9012E
S11301A0E057FE4F6083F901E85BFE4F40839430D3
S11301B010F49F5F01C090E09093450108951F9350
S11301C0CF93DF9388E30E94090280E00E94370204
S11301D081E00E9437020E942F0288E30E940902F4
S11301E08CE10E94370289E30E9409020E944902BD
S11301F00E944902C82F0E9449020E944902D82F36
S11302000E9449020E945302182F88E30E940902A7
S113021080E00E94370280E00E9437020E942F0291
S1130220412F6D2F8C2F0E94C700DF91CF911F911A
S113023008951F93CF93DF9388EE0E94090282E012
S11302400E94370280E00E94370210E014C0C12FE0
S1130250D0E0FE01E457FE4F80810E943702FE0188
S1130260E057FE4F80810E943702C85BDE4F8881D1
S11302700E9437021F5F143050F30E942F0288EE51
S11302800E94090282E00E94370280E80E9437023D
S11302900E942F02DF91CF911F9108950F931F9316
S11302A0CF93DF93CDB7DEB7A0970FB6F894DEBF38
S11302B00FBECDBF182F83E491E00E949900812FD7
S11302C090E0FC01E85BFE4F4081FC01E057FE4FEB
S11302D03081FC01E457FE4F20811F924F931F92FF
S11302E03F931F922F9301969F938F9387E091E002
S11302F09F938F938E010F5F1F4F1F930F930E9445
S11303005D02C8010E9499000FB6F894DEBF0FBECB
S1130310CDBFA0960FB6F894DEBF0FBECDBFDF9160
S1130320CF911F910F9108950E947C00C0E006C0F8
S113033040E060E080E00E94C700CF5FC430C0F3BB
S113034087B1816087B978948EE191E00E94990029
S113035088E30E94090280E00E94370281E00E9443
S113036037020E942F0288EE0E94090282E00E9456
S1130370370280E80E9437020E942F020E94BF00C9
S11303800E94A600C82F8235D1F028F4833439F1B5
S11303908734E9F006C08736D1F0823781F083369E
S11303A0F1F08DE291E00E9499008C2F0E9492005E
S11303B081E491E00E9499000E9477001CC040E013
S11303C060E08FEF0E94C7000E94190114C040E052
S11303D06FEF80E00E94C7000E9419010CC080E00A
S11303E00E944E0181E00E944E0182E00E944E0173
S11303F083E00E944E0180914401813009F0BECF18
S113040083E391E00E9499000E94DF000E94190199
S1130410B5CF94EA9093BC009091BC009923E4F783
S11304209091B900987F983011F0903191F48093B5
S1130430BB0084E88093BC008091BC008823E4F76F
S11304408091B900887F883131F0803431F480E0C4
S1130450089581E0089580E0089581E0089584E995
S11304608093BC008091BC0084FDFCCF08958093F0
S1130470BB0084E88093BC008091BC008823E4F72F
S11304808091B900887F883211F081E0089580E07E
S1130490089584EC8093BC008091BC008823E4F729
S11304A08091BB00089584E88093BC008091BC00D7
S11304B08823E4F78091BB000895AEE0B0E0E3E662
S11304C0F2E00C941E050D891E8986E08C831A8344
S11304D009838FEF9FE79E838D83AE01475E5F4F55
S11304E06F89788DCE0101960E947F02EF81F88595
S11304F0E00FF11F10822E96E4E00C943A05ABE075
S1130500B0E0E5E8F2E00C9410056C017B018A018F
S1130510FC0117821682838181FFCCC1CE01019632
S11305203C01F6019381F70193FD859193FF81913D
S11305307F01882309F4BAC1853239F493FD85918A
S113054093FF81917F01853229F4B60190E00E94E6
S11305507604E7CF912C212C312CFFE1F315D8F050
S11305608B3279F038F4803279F08332A1F4232D80
S113057020611DC08D3261F0803369F4232D216028
S113058016C0832D8260382EE32DE4603E2E2AC0EF
S1130590F32DF8601DC037FC2DC020ED280F2A3044
S11305A040F08E32B9F436FC81C1232D2064322E02
S11305B019C036FE06C08AE0989E200D1124922EA2
S11305C011C0EAE02E9E200D1124222EF32DF0629C
S11305D03F2E08C08C3621F4832D8068382E02C04B
S11305E0883641F4F70193FD859193FF81917F0152
S11305F08111B3CF982F9F7D9554933028F40C5FCD
S11306001F4F9FE399830DC0833631F0833771F018
S1130610833509F059C021C0F801808189830E5FB8
S11306201F4F88248394912C530113C02801F2E0B6
S11306304F0E511CF801A080B18036FE03C0692D15
S113064070E002C06FEF7FEFC5010E946B044C01A4
S11306508201F32DFF773F2E16C0280122E0420EBF
S1130660511CF801A080B18036FE03C0692D70E0F2
S113067002C06FEF7FEFC5010E9460044C01F32DAF
S1130680F0683F2E820133FC1BC0822D90E0881657
S11306909906B0F4B60180E290E00E9476042A94B0
S11306A0F4CFF50137FC859137FE81915F01B601E6
S11306B090E00E94760421102A9421E0821A910885
S11306C08114910471F7E8C0843611F0893641F53C
S11306D0F80137FE07C060817181828193810C5FCC
S11306E01F4F08C060817181072E000C880B990B85
S11306F00E5F1F4FF32DFF763F2E97FF09C0909595
S11307008095709561957F4F8F4F9F4FF0683F2E76
S11307102AE030E0A3010E94B204882E861845C066
S1130720853731F4232D2F7EB22E2AE030E025C008
S1130730932D997FB92E8F36C1F018F4883579F04E
S1130740B5C0803719F0883721F0B0C0E92FE061D7
S1130750BE2EB4FE0DC0FB2DF460BF2E09C034FEC6
S11307600AC0292F2660B22E06C028E030E005C05A
S113077020E130E002C020E132E0F801B7FE07C01A
S113078060817181828193810C5F1F4F06C06081FB
S1130790718180E090E00E5F1F4FA3010E94B204BC
S11307A0882E8618FB2DFF773F2E36FE0DC0232D95
S11307B02E7FA22E891458F434FE0BC032FC09C0DB
S11307C0832D8E7EA82E05C0B82CA32C03C0B82C74
S11307D001C0B92CA4FE0FC0FE01E80DF11D8081FB
S11307E0803321F49A2D997EA92E09C0A2FE06C059
S11307F0B394B39404C08A2D867809F0B394A3FC0F
S113080011C0A0FE06C0B21488F4280C922C9B18C8
S11308100EC0B21460F4B60180E290E00E94760447
S1130820B394F7CFB21418F42B1802C0982C212CCF
S1130830A4FE10C0B60180E390E00E947604A2FEFC
S113084017C0A1FC03C088E790E002C088E590E0EF
S1130850B6010CC08A2D867859F0A1FE02C08BE245
S113086001C080E2A7FC8DE2B60190E00E9476040C
S1130870891438F4B60180E390E00E9476049A94D7
S1130880F7CF8A94F301E80DF11D8081B60190E061
S11308900E9476048110F5CF222009F442CEB601DD
S11308A080E290E00E9476042A94F6CFF6018681D5
S11308B0978102C08FEF9FEF2B96E2E10C942C05F9
S11308C0FC010590615070400110D8F78095909517
S11308D08E0F9F1F0895FC0161507040019001101C
S11308E0D8F7809590958E0F9F1F08950F931F93AF
S11308F0CF93DF93FB01238121FD03C08FEF9FEF93
S11309002CC022FF16C046815781248135814217AD
S1130910530744F4A081B1819D012F5F3F4F318380
S113092020838C93268137812F5F3F4F3783268323
S113093014C08B01EC01FB010084F185E02D0995C5
S1130940892BE1F6D80116968D919C911797019603
S113095017969C938E931697CE01DF91CF911F919A
S11309600F910895FA01AA27283051F1203181F11D
S1130970E8946F936E7F6E5F7F4F8F4F9F4FAF4FA3
S1130980B1E03ED0B4E03CD0670F781F891F9A1FB6
S1130990A11D680F791F8A1F911DA11D6A0F711D6A
S11309A0811D911DA11D20D009F468943F912AE076
S11309B0269F11243019305D3193DEF6CF0108955E
S11309C0462F4770405D4193B3E00FD0C9F7F6CF8F
S11309D0462F4F70405D4A3318F0495D31FD405257
S11309E0419302D0A9F7EACFB4E0A69597958795ED
S11309F077956795BA95C9F70097610571050895CC
S1130A009B01AC010A2E0694579547953795279577
S1130A10BA95C9F7620F731F841F951FA01D08950F
S1130A202F923F924F925F926F927F928F929F92FA
S1130A30AF92BF92CF92DF92EF92FF920F931F93E8
S1130A40CF93DF93CDB7DEB7CA1BDB0B0FB6F89499
S1130A50DEBF0FBECDBF09942A88398848885F84D9
S1130A606E847D848C849B84AA84B984C884DF804A
S1130A70EE80FD800C811B81AA81B981CE0FD11D2E
S1130A800FB6F894DEBF0FBECDBFED010895F89404
S1050A90FFCF92
S1130A92707573680D0A00436F6C6F722025693A92
S1130AA22025692C2025692C2025690D0A007465EE
S1130AB27374206D6573736167650D0A004563681D
S1130AC26F2000095075736820446574656374650A
S1070AD2640D0A00A1
S9030000FC
