S01300005465726D50726F6A6563742E73726563A2
S11300000C9434000C9446000C9446000C94460066
S11300100C9446000C9446000C9446000C94460044
S11300200C9446000C9446000C9446000C94460034
S11300300C9446000C9446000C9446000C94460024
S11300400C9446000C9446000C9446000C94460014
S11300500C9446000C9446000C9446000C94460004
S11300600C9446000C94460011241FBECFEFD8E038
S1130070DEBFCDBF21E0A0E0B1E001C01D92A931F7
S1130080B207E1F70E9460000C946E000C9400002B
S113009090910001292F30E0F901E75FFE4F808342
S11300A0F901EF5EFE4F6083F901EF5FFE4F40837D
S11300B0973010F49F5F01C090E090930001089581
S11300C0C0E009C040E050E060E070E080E090E013
S11300D00E944800CF5FC830A8F3FFCFF894FFCF49
S9030000FC
