:100000000C945C010C9479010C9479010C947901A5
:100010000C9479010C9479010C9479010C94790178
:100020000C9479010C9479010C9479010C94F401ED
:100030000C9479010C9479010C9479010C94790158
:100040000C9479010C9479010C94D7060C947901E5
:100050000C9479010C9479010C9479010C94790138
:100060000C9479010C947901A504D804D804D8041F
:10007000D8049704C1048A04D804D804D804D80446
:10008000D804D804D804D804D804D804D804D80490
:10009000D804D804D804D804D804D804D804D80480
:1000A000D804D804D804D804A504D804D804D804A3
:1000B000D8049704C1048A046E616E00696E6600FC
:1000C00000407A10F35A00A0724E18090010A5D40F
:1000D000E80000E87648170000E40B54020000CA6C
:1000E0009A3B000000E1F5050000809698000000B2
:1000F00040420F000000A086010000001027000011
:100100000000E803000000006400000000000A0096
:10011000000000000100000000002C76D888DC6799
:100120004F0823DFC1DFAE59E1B1B796E5E3E453F1
:10013000C63AE651997696E8E6C28426EB898C9B0E
:1001400062ED407C6FFCEFBC9C9F40F2BAA56FA5AE
:10015000F490055A2AF75C936B6CF9676DC11BFC30
:10016000E0E40D47FEF520E6B500D0ED902E03004B
:10017000943577050080841E080000204E0A000098
:1001800000C80C333333330F986E12831141EF8D57
:100190002114893BE65516CFFEE6DB18D1844B3897
:1001A0001BF77C1D901DA4BBE424203284725E22C8
:1001B0008100C9F124ECA1E53D272A2A2A2A2A2A0E
:1001C0002A2A2A2A2A2A2A2A2A2A2A2A2A2A2A2A8F
:1001D0002A2A2A2A2A2A2A2A2A2A2A2A2A2A2A0D9C
:1001E0000A507265737320616E79206F662074689F
:1001F000657365206B6579733B0D0A20204D202DBA
:100200002053746F7020646174612061637175693B
:10021000736974696F6E20616E642073686F7720F4
:100220006D656E752E0D0A202052202D2052756EA0
:1002300020616E6420636F6C6C656374206461740C
:10024000612E0D0A202054202D20476574207469EA
:100250006D652066726F6D20504320616E6420735F
:100260006574205254432E0D0A202053202D205017
:1002700072696E742063757272656E742074696D34
:1002800065206F6E20746865205254432E0D0A2A33
:100290002A2A2A2A2A2A2A2A2A2A2A2A2A2A2A2ABE
:1002A0002A2A2A2A2A2A2A2A2A2A2A2A2A2A2A2AAE
:1002B0002A2A2A2A0D0A000011241FBECFEFD8E0F7
:1002C000DEBFCDBF11E0A0E0B1E0E4E5F1E202C0A5
:1002D00005900D92AE3CB107D9F722E0AEECB1E04B
:1002E00001C01D92A833B207E1F70E948D030C9460
:1002F000A8100C94000060910001709101010E940F
:10030000860180910001909101010895EF92FF9282
:100310000F931F93CF93DF938C01EB01FC01868138
:1003200097818459984F64E670E00E9480109B0189
:100330007C014DE2BE01C9010E94E201BE016E5F77
:100340007F4F4DE2C7010E94E201BE016B5F7F4F0C
:10035000F8018581082E000C990B4DE201960E9450
:10036000E201BE01685F7F4FF801838140E2082E01
:10037000000C990B0E94E201BE01655F7F4FF801FE
:1003800082814AE3082E000C990B0E94E201BE0113
:10039000625F7F4FF80181814AE3082E000C990BC0
:1003A0000E94E201BE016F5E7F4FF801808140E054
:1003B000082E000C990B0E94E201CDB7DEB7E6E0F3
:1003C0000C94A10E1F93CF93DF93EB01142F6AE0DF
:1003D00070E00E948010605D6883805D89831A836D
:1003E000DF91CF911F9108951F920F9200905F00AF
:1003F0000F9211242F933F934F935F936F937F93AB
:100400008F939F93AF93BF93EF93FF93CF93DF931C
:10041000CDB7DEB72C97DEBFCDBFF89482E192E076
:100420000E948F0682E192E00E947B019093D101AD
:100430008093D0018091D0019091D1010E94A507B5
:1004400082E091E00E94A50780E00E946B029A83FF
:1004500089831B821C821D821E828E818F938D81D7
:100460008F938C818F938B818F9385E091E0892F7F
:100470008F9385E091E08F93CE010796292F2F93DC
:100480008F930E9400108DB79EB708960FB6F89410
:10049000DEBF0FBECDBFCE0107960E94A5077894A0
:1004A00000002C960FB6F894DEBF0FBECDBFDF91D3
:1004B000CF91FF91EF91BF91AF919F918F917F91DC
:1004C0006F915F914F913F912F910F9000925F003C
:1004D0000F901F901895CF93DF93CDB7DEB7A197FC
:1004E0000FB6F894DEBF0FBECDBF89A38CE790E0B6
:1004F00029A12064FC01208380E090E0A0E2B1E427
:1005000089839A83AB83BC832BEA3AEA4AEA50E4B4
:1005100069817A818B819C810E94890ADC01CB01EF
:100520008D839E83AF83B88720E030E040E850E4BD
:1005300069817A818B819C810E94890ADC01CB01CF
:1005400089879A87AB87BC8720E030E040E85FE38B
:100550006D817E818F8198850E94690988231CF4B2
:1005600081E08D87B2C020E03FEF4FE757E4698517
:100570007A858B859C850E94840A18160CF07BC0B6
:1005800020E030E04AE754E469817A818B819C81E4
:100590000E946E09DC01CB018E879F87A88BB98BE7
:1005A00020E030E04AE755E46E857F8588899989A7
:1005B0000E94890ADC01CB018A8B9B8BAC8BBD8BA3
:1005C00020E030E040E85FE36A897B898C899D897F
:1005D0000E94690988232CF481E090E09F8B8E8B28
:1005E0003FC020E03FEF4FE757E46A897B898C8961
:1005F0009D890E94840A18164CF520E030E040E204
:1006000051E46E857F85888999890E94890ADC0179
:10061000CB01BC01CD010E94E009DC01CB019F8B25
:100620008E8B0FC080E991E0998F888F888D998D8E
:100630000197F1F7998F888F8E899F8901979F8BFA
:100640008E8B8E899F89892B69F73FC06A897B8948
:100650008C899D890E94E009DC01CB019F8B8E8BE8
:100660008E899F899B8F8A8F8A8D9B8D0197F1F749
:100670009B8F8A8F2AC020E030E04FE753E46D81E2
:100680007E818F8198850E94840A1816ACF4698552
:100690007A858B859C850E94E009DC01CB019D8FCA
:1006A0008C8F8C8D9D8D9F8F8E8F8E8D9F8D0197C2
:1006B000F1F79F8F8E8F0FC06D817E818F8198851E
:1006C0000E94E009DC01CB018D878D8588A388A17C
:1006D0008A95F1F788A38AE790E02AE730E0F901EC
:1006E00020812064FC01208300008AE790E0FC0167
:1006F0008081882F90E080749927892BB1F788E753
:1007000090E0FC0180819181A1960FB6F894DEBF44
:100710000FBECDBFDF91CF910895CF93DF93CDB7BB
:10072000DEB72F970FB6F894DEBF0FBECDBF8AE2BB
:1007300090E02AE230E0F90120812068FC0120836A
:1007400087E290E027E230E0F90120812E7FFC0172
:1007500020838CE790E020E4FC0120838AE790E08E
:1007600027E8FC01208380E890E0FC01108288E803
:1007700090E024E234EFFC013183208381E890E0B3
:1007800021E830E0F90120812C60FC0120830E94E7
:100790001C070E94060878940E94E1040E94F70753
:1007A0008823E1F70E94D10789838FE690E0FC015E
:1007B0008081882F90E082709927892B09F494C05A
:1007C00089818D3609F490C089818D3409F48CC0FB
:1007D0008CE091E00E94A50789810E948A078BE244
:1007E00090E02BE230E0F90120812068FC012083B9
:1007F00080E090E0A8ECB2E48A839B83AC83BD8365
:1008000020E030E04AE755E46A817B818C819D815C
:100810000E94890ADC01CB018E839F83A887B98758
:1008200020E030E040E85FE36E817F818885998534
:100830000E94690988232CF481E090E09B878A87D5
:100840003FC020E03FEF4FE757E46E817F8188850E
:1008500099850E94840A18164CF520E030E040E2A9
:1008600051E46A817B818C819D810E94890ADC012F
:10087000CB01BC01CD010E94E009DC01CB019B87CB
:100880008A870FC080E991E09D878C878C859D8544
:100890000197F1F79D878C878A859B8501979B87B8
:1008A0008A878A859B85892B69F714C06E817F8131
:1008B000888599850E94E009DC01CB019B878A87A6
:1008C0008A859B859F878E878E859F850197F1F707
:1008D0009F878E878BE290E02BE230E0F901208148
:1008E0002F77FC0120836CC08981882F90E0092E2E
:1008F000000CAA0BBB0B4DE450E027E230E0841B58
:10090000950B2817390708F453C08C5C9F4FFC01E6
:100910000C94730E8BE191E00E94A50782E192E0B6
:100920000E94ED0482E192E00E941C0649C084E42A
:1009300091E00E94A5078FE690E02FE630E0F901F4
:1009400020812260FC0120833BC08FE690E0FC0107
:100950008081882F90E082709927892B81F18FE622
:1009600090E02FE630E0F90120812D7FFC0120830B
:1009700086E591E00E94A5078AEB91E00E9454076A
:100980001FC082E192E00E948F0682E192E00E9405
:100990007B019093D1018093D0018091D0019091FF
:1009A000D1010E94A50784E691E00E94A50708C036
:1009B00087E691E00E94A5070E941007EFCE000095
:1009C000EDCECF93DF93CDB7DEB78AEB91E00E94F7
:1009D00054070000DF91CF910895CF93DF93CDB7F7
:1009E000DEB7A2970FB6F894DEBF0FBECDBF9AA3B5
:1009F00089A31A8219821CC00E94D107482F9E0128
:100A0000235F3F4F89819A81820F931FFC014083AE
:100A10009E01235F3F4F89819A81820F931FFC01C2
:100A200080810E948A0789819A8101969A838983AD
:100A300089819A81049704F30E94D1071C821B824A
:100A40001CC00E94D107482F9E012E5E3F4F8B8114
:100A50009C81820F931FFC0140839E012E5E3F4FBD
:100A60008B819C81820F931FFC0180810E948A07E9
:100A70008B819C8101969C838B838B819C810297C7
:100A800004F30E94D1071E821D821CC00E94D10760
:100A9000482F9E012B5E3F4F8D819E81820F931FB9
:100AA000FC0140839E012B5E3F4F8D819E81820F12
:100AB000931FFC0180810E948A078D819E8101968F
:100AC0009E838D838D819E81029704F30E94D107BE
:100AD00018861F821CC00E94D107482F9E01285EE5
:100AE0003F4F8F819885820F931FFC0140839E01A9
:100AF000285E3F4F8F819885820F931FFC01808174
:100B00000E948A078F819885019698878F838F81AD
:100B10009885029704F30E94D1071A8619861CC093
:100B20000E94D107482F9E01255E3F4F89859A85F7
:100B3000820F931FFC0140839E01255E3F4F8985F4
:100B40009A85820F931FFC0180810E948A07898504
:100B50009A8501969A87898789859A85029704F3F1
:100B60000E94D1071C861B861CC00E94D107482FFB
:100B70009E01225E3F4F8B859C85820F931FFC0157
:100B800040839E01225E3F4F8B859C85820F931F81
:100B9000FC0180810E948A078B859C8501969C8739
:100BA0008B878B859C85029704F30E94D1070E9456
:100BB000D107CE010D960E94B00E9C012C563740F5
:100BC00089A19AA1FC0137832683CE0142960E9417
:100BD000B00E282F89A19AA1FC012583CE0145964C
:100BE0000E94B00E282F89A19AA1FC012383CE0177
:100BF00048960E94B00E282F89A19AA1FC01228359
:100C0000CE014B960E94B00E282F89A19AA1FC011B
:100C10002183CE014E960E94B00E282F89A19AA161
:100C2000FC0120830000A2960FB6F894DEBF0FBE31
:100C3000CDBFDF91CF9108951F93CF93DF9300D065
:100C4000CDB7DEB79A83898380EA0E94640880E08A
:100C50000E94D10880E80E94D1080E94B9088EE65F
:100C600091E00E94A50780EA0E94640882E00E9449
:100C7000D10889819A81FC0180810E9427090E9404
:100C8000D10889819A81FC0181810E9427090E94F3
:100C9000D10889819A81FC0182810E9427098F7382
:100CA0000E94D10889819A81FC0186819781002464
:100CB000969587950794969587950794982F802DFC
:100CC000182F89819A81FC01808591850E942709CE
:100CD000810F0E94D10889819A81FC0185810E943F
:100CE00027090E94D1080E94B9088EE891E00E946D
:100CF000A50780EA0E94640880E00E94D10880E095
:100D00000E94D1080E94B9088CE991E00E94A507D1
:100D100000000F900F90DF91CF911F910895CF9316
:100D2000DF9300D0CDB7DEB79A83898380EA0E9433
:100D3000170882E00E94D1080E94B90881EA0E9447
:100D400017080E94F9080E945309282F89819A8167
:100D5000FC0120830E94F9080E945309282F8981F1
:100D60009A81FC0121830E94F9080E945309282FCF
:100D700089819A81FC0122830E94F9088F730E9465
:100D80005309282F30E089819A81FC01318720871F
:100D90000E9410090E945309282F89819A81FC0121
:100DA000258300000F900F90DF91CF9108951F923F
:100DB0000F9200905F000F9211242F938F939F93B7
:100DC000EF93FF93CF93DF931F92CDB7DEB786ECFF
:100DD00090E0FC01808189838091CE01882F90E092
:100DE0008E529E4F2981FC0120838091CE018F334A
:100DF00019F41092CE0105C08091CE018F5F8093CF
:100E0000CE0100000F90DF91CF91FF91EF919F9164
:100E10008F912F910F9000925F000F901F90189567
:100E2000CF93DF93CDB7DEB78091CE018093CF0112
:100E30000000DF91CF910895CF93DF9300D0CDB71D
:100E4000DEB787E690E09A83898385EC90E0FC0129
:100E5000108284EC90E02981FC01208381EC90E0F9
:100E600028E9FC01208382EC90E026E0FC0120834D
:100E70008AE290E02AE230E0F90120812260FC0160
:100E800020838AE290E02AE230E0F90120812E7F7F
:100E9000FC0120831092CE011092CF0100000F9030
:100EA0000F90DF91CF910895CF93DF93CDB7DEB749
:100EB00029970FB6F894DEBF0FBECDBF99878887FC
:100EC00013C0888599859C012F5F3F4F39872887FC
:100ED0009D838C838C819D81FC0184918E838E8186
:100EE0008F838F810E948A07888599859A83898359
:100EF00089819A81FC0184918B838B81882309F7F6
:100F0000000029960FB6F894DEBF0FBECDBFDF916B
:100F1000CF910895CF93DF931F92CDB7DEB789832A
:100F2000000080EC90E0FC018081882F90E08072CE
:100F30009927892BB1F386EC90E02981FC0120836D
:100F400000000F90DF91CF910895CF93DF9300D0F1
:100F5000CDB7DEB79A83898318C0000080EC90E09B
:100F6000FC018081882F90E080729927892BB1F352
:100F700026EC30E089819A81AC014F5F5F4F5A8344
:100F80004983FC018081F901808389819A81FC0178
:100F90008081882311F700000F900F90DF91CF918F
:100FA0000895CF93DF931F92CDB7DEB700009091E5
:100FB000CF018091CE019817D1F38091CF01882F76
:100FC00090E08E529E4FFC01808189838091CF01F9
:100FD0008F3319F41092CF0105C08091CF018F5F3C
:100FE0008093CF0189810F90DF91CF910895CF93A6
:100FF000DF93CDB7DEB72091CF019091CE0181E094
:10100000291709F080E0DF91CF910895CF93DF9306
:10101000CDB7DEB789EB90E0FC01108288EB90E061
:1010200028E4FC0120830000DF91CF910895CF9345
:10103000DF9300D0CDB7DEB78A838CEB90E024EA53
:10104000FC0120838CEA91E00E94A50700008CEB54
:1010500090E0FC0180818823D4F78FEB91E00E941F
:10106000A50789EB90E0FC018081887F89838981D5
:10107000883029F08981803111F081E020C08BEB2C
:1010800090E02A81FC0120838CEB90E024E8FC01B5
:10109000208300008CEB90E0FC0180818823D4F752
:1010A00089EB90E0FC018081887F89838981883188
:1010B00029F08981803411F081E001C080E00F9037
:1010C0000F90DF91CF910895CF93DF9300D0CDB7EC
:1010D000DEB78A838CEB90E024EAFC0120830000D9
:1010E0008CEB90E0FC0180818823D4F789EB90E0C1
:1010F000FC018081887F89838981883019F089810A
:10110000803171F58BEB90E02A81FC0120838CEB20
:1011100090E024E8FC01208300008CEB90E0FC01CF
:1011200080818823D4F789EB90E0FC018081887F5F
:1011300089838981803219F08981883599F48CEB13
:1011400090E024E9FC01208300008CEB90E0FC019E
:101150008081882F90E080719927892BB1F701C099
:101160000000B8CF000000000F900F90DF91CF91EA
:101170000895CF93DF93CDB7DEB78CEB90E024E9F1
:10118000FC01208300008CEB90E0FC018081882F23
:1011900090E080719927892BB1F70000DF91CF9102
:1011A0000895CF93DF9300D0CDB7DEB78A838BEB62
:1011B00090E02A81FC0120838CEB90E024E8FC0184
:1011C000208300008CEB90E0FC0180818823D4F721
:1011D00089EB90E0FC018081887F89838981883256
:1011E00011F081E001C080E00F900F90DF91CF916E
:1011F0000895CF93DF93CDB7DEB78CEB90E024EC6E
:10120000FC01208300008CEB90E0FC0180818823AE
:10121000D4F78BEB90E0FC018081DF91CF910895B2
:10122000CF93DF93CDB7DEB78CEB90E024E8FC01E1
:10123000208300008CEB90E0FC0180818823D4F7B0
:101240008BEB90E0FC018081DF91CF910895CF93EB
:10125000DF931F92CDB7DEB7898399818DEC989F7C
:10126000812D1124869586958695880F282F220F2B
:10127000220F820F292F281B822F282F99818DEC76
:10128000989F812D1124869586958695882F90E0CC
:1012900082959295907F9827807F9827822B0F9038
:1012A000DF91CF910895CF93DF931F92CDB7DEB733
:1012B00089838981982F9F70898182958F70880F8B
:1012C000282F220F220F820F890F0F90DF91CF91CD
:1012D00008950E940F0A08F481E008950E9482098F
:1012E0000C944A0A0E94430A58F00E943C0A40F0BB
:1012F00029F45F3F29F00C94330A51110C947E0AB3
:101300000C94390A0E945B0A68F39923B1F35523C0
:1013100091F3951B550BBB27AA2762177307840708
:1013200038F09F5F5F4F220F331F441FAA1FA9F39E
:1013300035D00E2E3AF0E0E832D091505040E6958C
:10134000001CCAF72BD0FE2F29D0660F771F881FED
:10135000BB1F261737074807AB07B0E809F0BB0BE0
:10136000802DBF01FF2793585F4F3AF09E3F5105F4
:1013700078F00C94330A0C947E0A5F3FE4F3983EB5
:10138000D4F3869577956795B795F7959F5FC9F7DD
:10139000880F911D9695879597F90895E1E0660F5E
:1013A000771F881FBB1F621773078407BA0720F0D7
:1013B000621B730B840BBA0BEE1F88F7E095089540
:1013C0000E94630A88F09F5798F0B92F9927B75168
:1013D000B0F0E1F0660F771F881F991F1AF0BA95D9
:1013E000C9F714C0B13091F00E947D0AB1E00895B0
:1013F0000C947D0A672F782F8827B85F39F0B93FA2
:10140000CCF3869577956795B395D9F73EF490958B
:101410008095709561957F4F8F4F9F4F0895990FDD
:101420000008550FAA0BE0E8FEEF16161706E807AE
:10143000F907C0F012161306E407F50798F0621BCF
:10144000730B840B950B39F40A2661F0232B242BA4
:10145000252B21F408950A2609F4A140A6958FEFC3
:10146000811D811D089597F99F6780E870E060E015
:1014700008959FEF80EC089500240A94161617062D
:1014800018060906089500240A9412161306140675
:1014900005060895092E0394000C11F4882352F0D8
:1014A000BB0F40F4BF2B11F460FF04C06F5F7F4F90
:1014B0008F4F9F4F089557FD9058440F551F59F077
:1014C0005F3F71F04795880F97FB991F61F09F3F31
:1014D00079F087950895121613061406551FF2CF5A
:1014E0004695F1DF08C0161617061806991FF1CFAA
:1014F00086957105610508940895E894BB276627D1
:101500007727CB0197F908950E940F0A08F48FEF0F
:1015100008950E949C0A0C944A0A0E943C0A38F0E2
:101520000E94430A20F0952311F00C94330A0C9486
:10153000390A11240C947E0A0E945B0A70F3959F6D
:10154000C1F3950F50E0551F629FF001729FBB27BA
:10155000F00DB11D639FAA27F00DB11DAA1F649F56
:101560006627B00DA11D661F829F2227B00DA11D09
:10157000621F739FB00DA11D621F839FA00D611D8F
:10158000221F749F3327A00D611D231F849F600DB0
:10159000211D822F762F6A2F11249F5750409AF0D9
:1015A000F1F088234AF0EE0FFF1FBB1F661F771F65
:1015B000881F91505040A9F79E3F510580F00C9430
:1015C000330A0C947E0A5F3FE4F3983ED4F3869589
:1015D00077956795B795F795E7959F5FC1F7FE2BD0
:1015E000880F911D9695879597F90895A0E1B0E031
:1015F000ECEFFAE00C94790E7C011B016A01FC010E
:1016000017821682838181FF44C39E012F5F3F4F63
:101610003901F7019381F10193FD859193FF819148
:101620001F01882309F431C3853239F493FD859174
:1016300093FF81911F01853239F4B70190E00E9438
:10164000C40F56016501E5CF10E0512C912CFFE14C
:10165000F915D8F08B3279F038F4803279F0833292
:10166000A1F4F92DF0612EC08D3261F0803369F460
:10167000292D21602DC0392D3260932E892D846053
:10168000982E2AC0E92DE86015C097FC2DC020EDEA
:10169000280F2A3088F496FE06C03AE0139F200DEA
:1016A0001124122F19C08AE0589E200D1124522EA9
:1016B000E92DE0629E2E10C08E3231F496FCE5C218
:1016C000F92DF0649F2E08C08C3621F4292D206856
:1016D000922E02C0883641F4F10193FD859193FF6B
:1016E00081911F018111B3CF9BEB980F933020F4B0
:1016F000992D9061805E07C09BE9980F933008F0A8
:1017000066C1992D9F7E96FF16E09F73992E8536B0
:1017100019F49064992E08C0863621F4392F306868
:10172000932E02C01111115097FE07C01C3350F4C4
:1017300044244394410E27E00BC0183038F027E0D2
:1017400017E005C027E09CE3492E02C0212F412C61
:10175000560184E0A80EB11CF6016081718182817E
:101760009381042DA3010E94CE0E6C01F981FC87A8
:10177000F0FF02C0F3FF06C091FC06C092FE06C057
:1017800000E205C00DE203C00BE201C000E08C8561
:101790008C7019F001115AC29BC297FE10C04C0CFC
:1017A000FC85F4FF04C08A81813309F44A9414143F
:1017B00074F528E0241578F588E0482E2CC096FCB6
:1017C0002AC0812F90E08C159D059CF03CEFC3163C
:1017D0003FEFD30674F0892D8068982E0AC0E2E0AE
:1017E000F0E0EC0FFD1FE10FF11D8081803319F453
:1017F00011501111F4CF97FE0EC044244394410EB2
:10180000812F90E0C816D9062CF41C1904C044247A
:10181000439401C010E097FE06C01C141D0434F46C
:10182000C601019605C085E090E002C081E090E02D
:1018300001110196112331F0212F30E02F5F3F4F2E
:10184000820F931F252D30E08217930714F4581A46
:1018500001C0512C892D897049F4552039F0B70108
:1018600080E290E00E94C40F5A94F7CF002329F041
:10187000B701802F90E00E94C40F93FC09C055204F
:1018800039F0B70180E390E00E94C40F5A94F7CF7B
:1018900097FE4CC04601D7FE02C0812C912CC60198
:1018A00088199909F301E80FF91FFE87ED87960162
:1018B00024193109388B2F87012F10E011950195DC
:1018C00011093FEF8316930629F4B7018EE290E0E9
:1018D0000E94C40FC814D9044CF08F8598898815CC
:1018E000990524F4ED85FE85818101C080E3F1E056
:1018F0008F1A91082D853E852F5F3F4F3E872D879C
:10190000801691062CF0B70190E00E94C40FD9CF49
:10191000C814D90441F49A81963320F4953319F40C
:101920003C8534FF81E3B70190E04EC08A8181336A
:1019300019F09C859F7E9C87B70190E00E94C40FA0
:10194000111105C094FC18C085E690E017C0B701DE
:101950008EE290E00E94C40F1E5F82E001E0080F5B
:10196000F301E80FF11D8081B70190E00E94C40FE0
:10197000802F0113F3CFE6CF85E490E0B7010E94FA
:10198000C40FD7FC06C0C114D10441F4EC85E4FFB8
:1019900005C0D194C194D1088DE201C08BE2B7019A
:1019A00090E00E94C40F80E32AE0C216D1042CF01C
:1019B0008F5FFAE0CF1AD108F7CFB70190E00E940D
:1019C000C40FB701C601C0960E94C40F54C183362C
:1019D00031F0833779F0833509F056C020C05601C5
:1019E00032E0A30EB11CF6018081898301E010E092
:1019F000630112C05601F2E0AF0EB11CF601C080C7
:101A0000D18096FE03C0612F70E002C06FEF7FEFC0
:101A1000C6010E94B10F8C01F92DFF7714C0560149
:101A200022E0A20EB11CF601C080D18096FE03C058
:101A3000612F70E002C06FEF7FEFC6010E94A60F1A
:101A40008C01F92DF0689F2EF3FD1AC0852D90E0D2
:101A500008171907A8F4B70180E290E00E94C40FAC
:101A60005A94F4CFF60197FC859197FE81916F010E
:101A7000B70190E00E94C40F51105A94015011090F
:101A80000115110579F7F7C0843611F0893661F533
:101A9000560197FE09C024E0A20EB11CF601608138
:101AA0007181828193810AC0F2E0AF0EB11CF60110
:101AB00060817181072E000C880B990BF92DFF7640
:101AC0009F2E97FF09C090958095709561957F4FE7
:101AD0008F4F9F4FF0689F2E2AE030E0A3010E94B5
:101AE0002210C82EC6183FC0092D853721F40F7E5D
:101AF0002AE030E01DC0097F8F3691F018F4883558
:101B000059F0C3C0803719F0883711F0BEC00061AA
:101B100004FF09C0046007C094FE08C0066006C048
:101B200028E030E005C020E130E002C020E132E0F2
:101B3000560107FF09C084E0A80EB11CF6016081C0
:101B400071818281938108C0F2E0AF0EB11CF60171
:101B50006081718180E090E0A3010E942210C82E74
:101B6000C6180F77902E96FE0BC0092D0E7FC1165A
:101B700050F494FE0AC092FC08C0092D0E7E05C0E8
:101B8000DC2C092D03C0DC2C01C0D12E04FF0DC0BC
:101B9000FE01EC0DF11D8081803311F4097E09C036
:101BA00002FF06C0D394D39404C0802F867809F036
:101BB000D39403FD11C000FF06C01C2DD51480F482
:101BC000150D1D190DC0D51458F4B70180E290E031
:101BD0000E94C40FD394F7CFD51410F45D1801C040
:101BE000512C04FF10C0B70180E390E00E94C40FA5
:101BF00002FF17C001FD03C088E790E002C088E53E
:101C000090E0B7010CC0802F867859F001FF02C028
:101C10008BE201C080E207FD8DE2B70190E00E94F7
:101C2000C40FC11638F4B70180E390E00E94C40FDE
:101C30001150F7CFCA94F301EC0DF11D8081B7016B
:101C400090E00E94C40FC110F5CF15C0F4E0F51567
:101C500060F584E0581A93FE1FC0011127C02C853F
:101C600023FF2AC008EB10E0392D3071932EF801C4
:101C70008491811124C0552009F4E4CCB70180E29D
:101C800090E00E94C40F5A94F6CFF70186819781A5
:101C900026C08FEF9FEF23C0B70180E290E00E9443
:101CA000C40F5A945110F8CFD8CF512CB701802FC0
:101CB00090E00E94C40FD3CF0CEB10E0D5CF911071
:101CC0008052B70190E00E94C40F0F5F1F4FCFCF2B
:101CD00023E0251510F483E0BDCF512CC0CF6096D2
:101CE000E2E10C94950EEE0FFF1F0590F491E02DAC
:101CF00009942F923F924F925F926F927F928F92B0
:101D00009F92AF92BF92CF92DF92EF92FF920F938A
:101D10001F93CF93DF93CDB7DEB7CA1BDB0B0FB694
:101D2000F894DEBF0FBECDBF09942A883988488851
:101D30005F846E847D848C849B84AA84B984C884E7
:101D4000DF80EE80FD800C811B81AA81B981CE0FDE
:101D5000D11D0FB6F894DEBF0FBECDBFED010895C3
:101D6000FC0188279927E89421912032E9F3293052
:101D700010F02E30C8F32B3241F02D3239F4689434
:101D800004C00E94BC0F820F911D219120532A3064
:101D9000C0F31EF4909581959F4F0895283008F068
:101DA00027E03327DA01990F311D87FD91600096F6
:101DB0006105710539F432602E5F3D9330E32A9559
:101DC000E1F708959F3F30F080387105610509F013
:101DD0003C5F3C5F3D93913008F08068911DDF933C
:101DE000CF931F930F93FF92EF92192F987F9695A1
:101DF000E92F96959695E90FFF27E65EFE4F992706
:101E00003327EE24FF24A701E701059008940794E7
:101E100028F4360FE71EF81E491F511D660F771F65
:101E2000881F991F0694A1F70590079428F4E70EE0
:101E3000F81E491F561FC11D770F881F991F661F67
:101E40000694A1F70590079428F4F80E491F561F31
:101E5000C71FD11D880F991F661F771F0694A1F712
:101E60000590079420F4490F561FC71FD81F990FDC
:101E7000661F771F881F0694A9F784911095177025
:101E800041F0D695C79557954795F794E7941A95DD
:101E9000C1F7E0ECF0E068941590159135916591EB
:101EA000959105907FE27395E118F10A430B560B6B
:101EB000C90BD009C0F7E10CF11E431F561FC91F03
:101EC000D01D7EF4703311F48A95E6CFE89401506A
:101ED00030F0080F0AF40027021708F4202F23958A
:101EE000022F7A3328F079E37D932A95E9F710C021
:101EF0007D932A9589F6069497956795379517955A
:101F00001794E118F10A430B560BC90BD00998F04E
:101F100023957E9173957A3308F070E37C932013B8
:101F2000B8F77E9170617D9330F0839571E37D9376
:101F300070E32A95E1F71124EF90FF900F911F9124
:101F4000CF91DF91992787FD90950895FC01059029
:101F5000615070400110D8F7809590958E0F9F1FAB
:101F60000895FC016150704001900110D8F78095F0
:101F700090958E0F9F1F08957AE0979F902D879FD1
:101F8000802D910D112408950F931F93CF93DF930C
:101F9000FB01238121FD03C08FEF9FEF2CC022FFA7
:101FA00016C046815781248135814217530744F476
:101FB000A081B1819D012F5F3F4F318320838C939E
:101FC000268137812F5F3F4F3783268314C08B01D3
:101FD000EC01FB010084F185E02D0995892BE1F6E8
:101FE000D80116968D919C911797019617969C9300
:101FF0008E931697CE01DF91CF911F910F91089587
:10200000AEE0B0E0E6E0F0E10C94870E0D891E89A9
:1020100086E08C831A8309838FEF9FE79E838D83ED
:10202000AE01475E5F4F6F89788DCE0101960E94A9
:10203000F60AEF81F885E00FF11F10822E96E4E09A
:102040000C94A30EFA01AA27283051F1203181F116
:10205000E8946F936E7F6E5F7F4F8F4F9F4FAF4FB0
:10206000B1E03ED0B4E03CD0670F781F891F9A1FC3
:10207000A11D680F791F8A1F911DA11D6A0F711D77
:10208000811D911DA11D20D009F468943F912AE083
:10209000269F11243019305D3193DEF6CF0108956B
:1020A000462F4770405D4193B3E00FD0C9F7F6CF9C
:1020B000462F4F70405D4A3318F0495D31FD405264
:1020C000419302D0A9F7EACFB4E0A69597958795FA
:1020D00077956795BA95C9F70097610571050895D9
:1020E0009B01AC010A2E0694579547953795279585
:1020F000BA95C9F7620F731F841F951FA01D08951D
:1021000097FB072E16F4009407D077FD09D00E94A4
:10211000941007FC05D03EF4909581959F4F08954B
:10212000709561957F4F0895AA1BBB1B51E107C0B5
:10213000AA1FBB1FA617B70710F0A61BB70B881F57
:10214000991F5A95A9F780959095BC01CD010895E6
:04215000F894FFCF31
:102154001E022C2000252E32660D0A00617564696A
:10216400626C6520626565702E2000476574746931
:102174006E672074696D652066726F6D2050432E02
:102184002052756E2069736F74696D652E76627363
:102194002E0D0A005374617274696E67206C6F6748
:1021A4002E2E2E0D0A00456E64696E67206C6F67D3
:1021B4002E0D0A000D0A00426565700D0A005B735E
:1021C40065745043463835383354696D655D207005
:1021D4006175736564205254432E2E2E200077724D
:1021E4006F7465205254432E2E2E2000756E70613C
:1021F40075736564207274632E0D0A0053656E64F2
:10220400696E672053544152542E2E2E0D0A0053EA
:0E221400544152542073656E74210D0A00006F
:00000001FF
