S00D00004C616230362E73726563A2
S11300000C94DB000C94F8000C94F8000C94F800A9
S11300100C94F8000C94F8000C94F8000C94F8007C
S11300200C94F8000C94F8000C94F8000C947301F0
S11300300C94F8000C94F8000C94F8000C94F8005C
S11300400C94F8000C94F8000C9421050C94F8001E
S11300500C94F8000C94F8000C94F8000C94F8003C
S11300600C94F8000C94F800EF02220322032203FC
S11300702203E1020B03D4022203220322032203FC
S11300802203220322032203220322032203220344
S11300902203220322032203220322032203220334
S11300A02203220322032203EF0222032203220358
S11300B02203E1020B03D4022A2A2A2A2A2A2A2A00
S11300C02A2A2A2A2A2A2A2A2A2A2A2A2A2A2A2A8C
S11300D02A2A2A2A2A2A2A2A2A2A2A2A2A0D0A5093
S11300E07265737320616E79206F6620746865731E
S11300F065206B6579733B0D0A20204D202D20531C
S1130100746F7020646174612061637175697369CF
S113011074696F6E20616E642073686F77206D65FB
S11301206E752E0D0A202052202D2052756E2061EE
S11301306E6420636F6C6C65637420646174612EFB
S11301400D0A202054202D204765742074696D65A4
S11301502066726F6D20504320616E642073657455
S1130160205254432E0D0A202053202D2050726912
S11301706E742063757272656E742074696D652087
S11301806F6E20746865205254432E0D0A2A2A2A61
S11301902A2A2A2A2A2A2A2A2A2A2A2A2A2A2A2ABB
S11301A02A2A2A2A2A2A2A2A2A2A2A2A2A2A2A2AAB
S11301B02A2A0D0A000011241FBECFEFD8E0DEBFAB
S11301C0CDBF11E0A0E0B1E0EEEFF2E102C0059096
S11301D00D92A63CB107D9F722E0A6ECB1E001C02C
S11301E01D92A033B207E1F70E94D6010C947D0959
S11301F00C94000060910001709101010E940501BE
S113020080910001909101010895EF92FF920F9364
S11302101F93CF93DF938C01EB01FC0186819781BF
S11302208459984F64E670E00E943A099B017C016E
S11302304DE2BE01C9010E946101BE016E5F7F4FA4
S11302404DE2C7010E946101BE016B5F7F4FF8015F
S11302508581082E000C990B4DE201960E946101E4
S1130260BE01685F7F4FF801838140E2082E000CD5
S1130270990B0E946101BE01655F7F4FF801828185
S11302804AE3082E000C990B0E946101BE01625FD3
S11302907F4FF80181814AE3082E000C990B0E94DC
S11302A06101BE016F5E7F4FF801808140E0082E3E
S11302B0000C990B0E946101CDB7DEB7E6E00C9407
S11302C05A091F93CF93DF93EB01142F6AE070E078
S11302D00E943A09605D6883805D89831A83DF9197
S11302E0CF911F9108951F920F9200905F000F927B
S11302F011242F933F934F935F936F937F938F9327
S11303009F93AF93BF93EF93FF93CF93DF93CDB7B7
S1130310DEB76297DEBFCDBFF8948AE092E00E9418
S1130320D9048AE092E00E94FA009093C901809374
S1130330C8018091C8019091C9010E94EF0582E033
S113034091E00E94EF0588E790E0FC0180819181B3
S11303509A83898389819A819E012D5F3F4F4AE068
S113036050E0B9010E94F2080E94EF0585E091E097
S11303700E94EF057894000062960FB6F894DEBFF1
S11303800FBECDBFDF91CF91FF91EF91BF91AF91A0
S11303909F918F917F916F915F914F913F912F9199
S11303A00F9000925F000F901F901895CF93DF93EA
S11303B0CDB7DEB72F970FB6F894DEBF0FBECDBF13
S11303C08AE290E02AE230E0F90120812068FC0111
S11303D0208387E290E027E230E0F90120812E7F3C
S11303E0FC0120838CE790E020E4FC0120838BE770
S11303F090E0FC0110828AE790E020ECFC0120836D
S113040080E890E0FC01108288E890E024E234EF78
S1130410FC013183208381E890E021E830E0F90198
S113042020812C60FC0120830E9466050E945006F6
S113043078940E942B030E9441068823E1F70E94CE
S11304401B0689838FE690E0FC018081882F90E071
S113045082709927892B09F491C089818D3609F41A
S11304608DC089818D3409F489C088E091E00E94AF
S1130470EF058BE290E02BE230E0F9012081206867
S1130480FC01208380E090E0A8ECB2E48A839B83A3
S1130490AC83BD8320E030E04AE755E46A817B8188
S11304A08C819D810E943908DC01CB018E839F835E
S11304B0A887B98720E030E040E85FE36E817F8160
S11304C0888599850E94B30788232CF481E090E005
S11304D09B878A873FC020E03FEF4FE757E46E8158
S11304E07F81888599850E94340818164CF520E090
S11304F030E040E251E46A817B818C819D810E94DD
S11305003908DC01CB01BC01CD010E94B807DC0134
S1130510CB019B878A870FC080E991E09D878C87F8
S11305208C859D850197F1F79D878C878A859B85AE
S113053001979B878A878A859B85892B69F714C0D5
S11305406E817F81888599850E94B807DC01CB0183
S11305509B878A878A859B859F878E878E859F85C3
S11305600197F1F79F878E878BE290E02BE230E0D2
S1130570F90120812F77FC0120836CC08981882FA9
S113058090E0092E000CAA0BBB0B4DE450E027E2CF
S113059030E0841B950B2817390708F453C08C5C92
S11305A09F4FFC010C94CE0887E191E00E94EF0577
S11305B08AE092E00E9437038AE092E00E94660497
S11305C049C080E491E00E94EF058FE690E02FE6B9
S11305D030E0F90120812260FC0120833BC08FE6DA
S11305E090E0FC018081882F90E082709927892B0C
S11305F081F18FE690E02FE630E0F90120812D7F34
S1130600FC01208382E591E00E94EF0588EB90E0F5
S11306100E949E051FC08AE092E00E94D9048AE0ED
S113062092E00E94FA009093C9018093C8018091DE
S1130630C8019091C9010E94EF0585E091E00E94F4
S1130640EF0508C080E691E00E94EF050E945A057C
S1130650F2CE0000F0CECF93DF93CDB7DEB788EBB8
S113066090E00E949E050000DF91CF910895CF9302
S1130670DF93CDB7DEB7A2970FB6F894DEBF0FBEF7
S1130680CDBF9AA389A31A8219821CC00E941B069B
S1130690482F9E01235F3F4F89819A81820F931FC8
S11306A0FC0140839E01235F3F4F89819A81820F21
S11306B0931FFC0180810E94D40589819A8101964F
S11306C09A83898389819A81049704F30E941B0683
S11306D01C821B821CC00E941B06482F9E012E5E9A
S11306E03F4F8B819C81820F931FFC0140839E01AD
S11306F02E5E3F4F8B819C81820F931FFC01808172
S11307000E94D4058B819C8101969C838B838B8171
S11307109C81029704F30E941B061E821D821CC04A
S11307200E941B06482F9E012B5E3F4F8D819E81A8
S1130730820F931FFC0140839E012B5E3F4F8D81EE
S11307409E81820F931FFC0180810E94D4058D81BC
S11307509E8101969E838D838D819E81029704F3F1
S11307600E941B0618861F821CC00E941B06482F6D
S11307709E01285E3F4F8F819885820F931FFC0155
S113078040839E01285E3F4F8F819885820F931F7F
S1130790FC0180810E94D4058F81988501969887F9
S11307A08F838F819885029704F30E941B061A8613
S11307B019861CC00E941B06482F9E01255E3F4FD0
S11307C089859A85820F931FFC0140839E01255ED3
S11307D03F4F89859A85820F931FFC0180810E9477
S11307E0D40589859A8501969A87898789859A850A
S11307F0029704F30E941B061C861B861CC00E94E1
S11308001B06482F9E01225E3F4F8B859C85820FDD
S1130810931FFC0140839E01225E3F4F8B859C8584
S1130820820F931FFC0180810E94D4058B859C85D7
S113083001969C878B878B859C85029704F30E9485
S11308401B060E941B06CE010D960E94D4089C0133
S11308502C56374089A19AA1FC0137832683CE0107
S113086042960E94D408282F89A19AA1FC012583CD
S1130870CE0145960E94D408282F89A19AA1FC0193
S11308802383CE0148960E94D408282F89A19AA1D7
S1130890FC012283CE014B960E94D408282F89A103
S11308A09AA1FC012183CE014E960E94D408282FE0
S11308B089A19AA1FC0120830000A2960FB6F894A6
S11308C0DEBF0FBECDBFDF91CF9108951F93CF93AD
S11308D0DF9300D0CDB7DEB79A83898380EA0E9484
S11308E0AE0680E00E941B0780E80E941B070E945E
S11308F0030787E691E00E94EF0580EA0E94AE06B6
S113090082E00E941B0789819A81FC0180810E94F8
S113091071070E941B0789819A81FC0181810E94D1
S113092071070E941B0789819A81FC0182810E94C0
S113093071078F730E941B0789819A81FC0186814C
S113094097810024969587950794969587950794A3
S1130950982F802D182F89819A81FC01808591859B
S11309600E947107810F0E941B0789819A81FC01F3
S113097085810E9471070E941B070E94030787E874
S113098091E00E94EF0580EA0E94AE0680E00E949A
S11309901B0780E00E941B070E94030785E991E082
S11309A00E94EF0500000F900F90DF91CF911F91EF
S11309B00895CF93DF9300D0CDB7DEB79A838983B0
S11309C080EA0E94610682E00E941B070E940307DE
S11309D081EA0E9461060E9443070E949D07282F16
S11309E089819A81FC0120830E9443070E949D070C
S11309F0282F89819A81FC0121830E9443070E9448
S1130A009D07282F89819A81FC0122830E94430734
S1130A108F730E949D07282F30E089819A81FC0101
S1130A20318720870E945A070E949D07282F8981B9
S1130A309A81FC01258300000F900F90DF91CF91E4
S1130A4008951F920F9200905F000F9211242F932C
S1130A508F939F93EF93FF93CF93DF931F92CDB721
S1130A60DEB786EC90E0FC01808189838091C60129
S1130A70882F90E086539E4F2981FC01208380912A
S1130A80C6018F3319F41092C60105C08091C601C6
S1130A908F5F8093C60100000F90DF91CF91FF918B
S1130AA0EF919F918F912F910F9000925F000F9083
S1130AB01F901895CF93DF93CDB7DEB78091C60111
S1130AC08093C7010000DF91CF910895CF93DF9306
S1130AD000D0CDB7DEB787E690E09A83898385ECB2
S1130AE090E0FC01108284EC90E02981FC012083D9
S1130AF081EC90E028E9FC01208382EC90E026E080
S1130B00FC0120838AE290E02AE230E0F9012081AE
S1130B102260FC0120838AE290E02AE230E0F901BD
S1130B2020812E7FFC0120831092C6011092C70100
S1130B3000000F900F90DF91CF910895CF93DF9332
S1130B40CDB7DEB729970FB6F894DEBF0FBECDBF81
S1130B509987888713C0888599859C012F5F3F4FAB
S1130B60398728879D838C838C819D81FC018491A6
S1130B708E838E818F838F810E94D4058885998589
S1130B809A83898389819A81FC0184918B838B81E7
S1130B90882309F7000029960FB6F894DEBF0FBE2C
S1130BA0CDBFDF91CF910895CF93DF931F92CDB73F
S1130BB0DEB78983000080EC90E0FC018081882FFF
S1130BC090E080729927892BB1F386EC90E029811B
S1130BD0FC01208300000F90DF91CF910895CF9303
S1130BE0DF9300D0CDB7DEB79A83898318C00000A5
S1130BF080EC90E0FC018081882F90E0807299273E
S1130C00892BB1F326EC30E089819A81AC014F5FE6
S1130C105F4F5A834983FC018081F9018083898174
S1130C209A81FC018081882311F700000F900F90B6
S1130C30DF91CF910895CF93DF931F92CDB7DEB7A5
S1130C4000009091C7018091C6019817D1F380915B
S1130C50C701882F90E086539E4FFC0180818983D1
S1130C608091C7018F3319F41092C70105C0809198
S1130C70C7018F5F8093C70189810F90DF91CF9166
S1130C800895CF93DF93CDB7DEB72091C70190913C
S1130C90C60181E0291709F080E0DF91CF91089522
S1130CA0CF93DF93CDB7DEB789EB90E0FC011082E0
S1130CB088EB90E028E4FC0120830000DF91CF91D1
S1130CC00895CF93DF9300D0CDB7DEB78A838CEB42
S1130CD090E024EAFC01208385EA91E00E94EF057C
S1130CE000008CEB90E0FC0180818823D4F788EB32
S1130CF091E00E94EF0589EB90E0FC018081887F00
S1130D0089838981883029F08981803111F081E0DB
S1130D1020C08BEB90E02A81FC0120838CEB90E0D7
S1130D2024E8FC01208300008CEB90E0FC0180812E
S1130D308823D4F789EB90E0FC018081887F898344
S1130D408981883129F08981803411F081E001C0E2
S1130D5080E00F900F90DF91CF910895CF93DF93B0
S1130D6000D0CDB7DEB78A838CEB90E024EAFC0197
S1130D70208300008CEB90E0FC0180818823D4F771
S1130D8089EB90E0FC018081887F898389818830A8
S1130D9019F08981803171F58BEB90E02A81FC0197
S1130DA020838CEB90E024E8FC01208300008CEB92
S1130DB090E0FC0180818823D4F789EB90E0FC016A
S1130DC08081887F89838981803219F0898188357F
S1130DD099F48CEB90E024E9FC01208300008CEB77
S1130DE090E0FC018081882F90E080719927892B05
S1130DF0B1F701C00000B8CF000000000F900F90C1
S1130E00DF91CF910895CF93DF93CDB7DEB78CEB0D
S1130E1090E024E9FC01208300008CEB90E0FC01CD
S1130E208081882F90E080719927892BB1F7000089
S1130E30DF91CF910895CF93DF9300D0CDB7DEB784
S1130E408A838BEB90E02A81FC0120838CEB90E079
S1130E5024E8FC01208300008CEB90E0FC018081FD
S1130E608823D4F789EB90E0FC018081887F898313
S1130E708981883211F081E001C080E00F900F90E9
S1130E80DF91CF910895CF93DF93CDB7DEB78CEB8D
S1130E9090E024ECFC01208300008CEB90E0FC014A
S1130EA080818823D4F78BEB90E0FC018081DF9173
S1130EB0CF910895CF93DF93CDB7DEB78CEB90E05D
S1130EC024E8FC01208300008CEB90E0FC0180818D
S1130ED08823D4F78BEB90E0FC018081DF91CF91E4
S1130EE00895CF93DF931F92CDB7DEB7898399819D
S1130EF08DEC989F812D1124869586958695880F73
S1130F00282F220F220F820F292F281B822F282FF0
S1130F1099818DEC989F812D1124869586958695CF
S1130F20882F90E082959295907F9827807F9827CC
S1130F30822B0F90DF91CF910895CF93DF931F926F
S1130F40CDB7DEB789838981982F9F708981829577
S1130F508F70880F282F220F220F820F890F0F9076
S1130F60DF91CF9108950E94E70708F481E0089586
S1130F700E94130888F09F5798F0B92F9927B7510A
S1130F80B0F0E1F0660F771F881F991F1AF0BA9529
S1130F90C9F714C0B13091F00E942D08B1E0089552
S1130FA00C942D08672F782F8827B85F39F0B93F44
S1130FB0CCF3869577956795B395D9F73EF49095DC
S1130FC08095709561957F4F8F4F9F4F0895990F2E
S1130FD00008550FAA0BE0E8FEEF16161706E807FF
S1130FE0F907C0F012161306E407F50798F0621B20
S1130FF0730B840B950B39F40A2661F0232B242BF5
S1131000252B21F408950A2609F4A140A6958FEF13
S1131010811D811D089557FD9058440F551F59F0A7
S11310205F3F71F04795880F97FB991F61F09F3FD1
S113103079F087950895121613061406551FF2CFFA
S11310404695F1DF08C0161617061806991FF1CF4A
S113105086957105610508940895E894BB27662771
S11310607727CB0197F908950E94E70708F48FEFDB
S113107008950E944C080C94BD080E94AF0838F0F3
S11310800E94B60820F0952311F00C94A6080C9445
S1131090AC0811240C942E080E940B0870F3959F41
S11310A0C1F3950F50E0551F629FF001729FBB275B
S11310B0F00DB11D639FAA27F00DB11DAA1F649FF7
S11310C06627B00DA11D661F829F2227B00DA11DAA
S11310D0621F739FB00DA11D621F839FA00D611D30
S11310E0221F749F3327A00D611D231F849F600D51
S11310F0211D822F762F6A2F11249F5750409AF07A
S1131100F1F088234AF0EE0FFF1FBB1F661F771F05
S1131110881F91505040A9F79E3F510580F00C94D0
S1131120A6080C942E085F3FE4F3983ED4F386950A
S113113077956795B795F795E7959F5FC1F7FE2B70
S1131140880F911D9695879597F9089597F99F674C
S113115080E870E060E008959FEF80EC089500243B
S11311600A941616170618060906089500240A9408
S113117012161306140605060895092E0394000C8E
S113118011F4882352F0BB0F40F4BF2B11F460FF1D
S113119004C06F5F7F4F8F4F9F4F0895EE0FFF1F67
S11311A00590F491E02D0994FC0188279927E8948F
S11311B021912032E9F3293010F02E30C8F32B327C
S11311C041F02D3239F4689404C00E940809820F5A
S11311D0911D219120532A30C0F31EF490958195DE
S11311E09F4F08954532510520F4423010F00C947D
S11311F0FD08FB011082CB010895BB274A3031F46E
S1131200992322F4BDE2909581959F4F0C94110986
S11312107AE0979F902D879F802D910D112408953A
S1131220BB27FB015527AA27880F991FAA1FA417BC
S113123010F0A41B83955051B9F7A05DAA3308F0B0
S1131240A95DA193009779F7B111B1931192CB01E4
S11312500C942A09DC01FC01672F71917723E1F7D3
S1131260329704C07C916D9370836291AE17BF076F
S1131270C8F3089597FB072E16F4009407D077FD62
S113128009D00E94690907FC05D03EF49095819528
S11312909F4F0895709561957F4F08952A883988E6
S11312A048885F846E847D848C849B84AA84B984FA
S11312B0C884DF80EE80FD800C811B81AA81B98106
S11312C0CE0FD11D0FB6F894DEBF0FBECDBFED011A
S11312D00895AA1BBB1B51E107C0AA1FBB1FA61779
S11312E0B70710F0A61BB70B881F991F5A95A9F7CB
S11112F080959095BC01CD010895F894FFCF30
S11312FE16022C20000D0A0061756469626C65206B
S113130E626565702E200047657474696E6720747B
S113131E696D652066726F6D2050432E2052756E76
S113132E2069736F74696D652E7662732E0D0A00D3
S113133E5374617274696E67206C6F672E2E2E0D56
S113134E0A00456E64696E67206C6F672E0D0A0085
S113135E426565700D0A005B7365745043463835FB
S113136E383354696D655D20706175736564205200
S113137E54432E2E2E200077726F746520525443E0
S113138E2E2E2E2000756E70617573656420727436
S113139E632E0D0A0053656E64696E6720535441C3
S11313AE52542E2E2E0D0A0053544152542073655E
S10913BE6E74210D0A000B
S9030000FC
