S00D00004C616230362E73726563A2
S11300000C9464000C9481000C9481000C94810085
S11300100C9481000C9481000C9481000C94810058
S11300200C9481000C9481000C9481000C94810048
S11300300C9481000C9481000C9481000C94810038
S11300400C9481000C9481000C9441020C94810066
S11300500C9481000C9481000C9481000C94810018
S11300600C9481000C948100507265737320416E6E
S113007079206F66205468657365204B6579730A2F
S11300800A002020202054202D2047657420546924
S11300906D652066726F6D20504320616E6420731D
S11300A06574205254430A00202020205220746F8B
S11300B02052756E20616E6420436F6C6C656374AE
S11300C020446174610A000011241FBECFEFD8E000
S11300D0DEBFCDBF11E0A0E0B1E0E6E4F9E002C08C
S11300E005900D92A233B107D9F721E0A2E3B1E064
S11300F001C01D92AE38B207E1F70E94FC000C94D7
S1130100A1040C94000060910001709101010E940F
S11301108E0080910001909101010895EF92FF9269
S11301200F931F93CF93DF938C01EB01FC01868126
S113013097818459984F64E670E00E945E049B01A5
S11301407C014DE2BE01C9010E94EA00BE016E5F5E
S11301507F4F4DE2C7010E94EA00BE016B5F7F4FF3
S1130160F8018581082E000C990B4DE201960E943E
S1130170EA00BE01685F7F4FF801838140E2082EE8
S1130180000C990B0E94EA00BE01655F7F4FF801E5
S113019082814AE3082E000C990B0E94EA00BE01FA
S11301A0625F7F4FF80181814AE3082E000C990BAE
S11301B00E94EA00BE016F5E7F4FF801808140E03B
S11301C0082E000C990B0E94EA00CDB7DEB7E6E0DA
S11301D00C947E041F93CF93DF93EB01142F6AE0FA
S11301E070E00E945E04605D6883805D89831A8389
S11301F0DF91CF911F910895CF93DF93CDB7DEB7F1
S11302002F970FB6F894DEBF0FBECDBF0E948602B3
S11302100E94700378940E945B010E94610388230A
S1130220E1F70E943B0389838981882F90E083351D
S1130230910539F18435910521F08235910571F0EC
S113024033C082E091E00E940F03CE0104960E9425
S11302506F01CE0104960E949A012CC0CE0104962F
S11302600E94FB01CE0104960E9483009B838A8333
S11302708A819B810E940F0389E291E00E940F030F
S113028019C0CE0104960E94FB01CE0104960E947F
S113029083009B838A838A819B810E940F0389E266
S11302A091E00E940F0306C08BE291E00E940F03CD
S11302B00E947A02B2CFCF93DF93CDB7DEB788E640
S11302C090E00E94BE0282E890E00E94BE0288EAAA
S11302D090E00E94BE020000DF91CF910895CF9379
S11302E0DF9300D0CDB7DEB79A83898389819A8161
S11302F0FC011782168289819A8123E0FC012583FF
S113030089819A8129E0FC01238389819A8122E1F0
S1130310FC01228389819A8128E3FC01218389815C
S11303209A812CE2FC01208300000F900F90DF9152
S1130330CF9108951F93CF93DF9300D0CDB7DEB74D
S11303409A83898380EA0E94810380E00E94C60325
S113035080E80E94C60380EA0E94810382E00E9432
S1130360C60389819A81FC0180810E941C040E9439
S1130370C60389819A81FC0181810E941C040E9428
S1130380C60389819A81FC0182810E941C048F73B7
S11303900E94C60389819A81FC0186819781002489
S11303A0969587950794969587950794982F802D11
S11303B0182F89819A81FC01808591850E941C04F3
S11303C0810F0E94C60389819A81FC0185810E9464
S11303D01C040E94C60380EA0E94810380E00E94FC
S11303E0C60380E00E94C60300000F900F90DF91C7
S11303F0CF911F910895CF93DF9300D0CDB7DEB78F
S11304009A83898380EA0E94810382E00E94C60362
S113041081EA0E9481030E94EE030E944804282F6F
S113042089819A81FC0120830E94EE030E94480482
S1130430282F89819A81FC0121830E94EE030E9466
S11304404804282F89819A81FC0122830E94EE03AB
S11304508F730E944804282F30E089819A81FC011F
S1130460318720870E9405040E944804282F89812F
S11304709A81FC01258300000F900F90DF91CF91AA
S113048008951F920F9200905F000F9211242F93F2
S11304908F939F93EF93FF93CF93DF931F92CDB7E7
S11304A0DEB786EC90E0FC01808189838091320183
S11304B0882F90E08C5C9E4F2981FC0120838091E1
S11304C032018F3319F41092320105C08091320148
S11304D08F5F8093320100000F90DF91CF91FF91E5
S11304E0EF919F918F912F910F9000925F000F9049
S11304F01F901895CF93DF93CDB7DEB7809132016B
S1130500809333010000DF91CF910895CF93DF935F
S113051000D0CDB7DEB787E690E09A83898385EC77
S113052090E0FC01108284EC90E02981FC0120839E
S113053081EC90E028E9FC01208382EC90E026E045
S1130540FC0120838AE290E02AE230E0F901208174
S11305502260FC0120838AE290E02AE230E0F90183
S113056020812E7FFC0120831092320110923301EE
S113057000000F900F90DF91CF910895CF93DF93F8
S1130580CDB7DEB729970FB6F894DEBF0FBECDBF47
S11305909987888713C0888599859C012F5F3F4F71
S11305A0398728879D838C838C819D81FC0184916C
S11305B08E838E818F838F810E94F4028885998532
S11305C09A83898389819A81FC0184918B838B81AD
S11305D0882309F7000029960FB6F894DEBF0FBEF2
S11305E0CDBFDF91CF910895CF93DF931F92CDB705
S11305F0DEB78983000080EC90E0FC018081882FC5
S113060090E080729927892BB1F386EC90E02981E0
S1130610FC01208300000F90DF91CF910895CF93C8
S1130620DF9300D0CDB7DEB79A83898318C000006A
S113063080EC90E0FC018081882F90E08072992703
S1130640892BB1F326EC30E089819A81AC014F5FAC
S11306505F4F5A834983FC018081F901808389813A
S11306609A81FC018081882311F700000F900F907C
S1130670DF91CF910895CF93DF931F92CDB7DEB76B
S1130680000090913301809132019817D1F3809149
S11306903301882F90E08C5C9E4FFC01808189831C
S11306A0809133018F3319F41092330105C0809186
S11306B033018F5F8093330189810F90DF91CF9154
S11306C00895CF93DF93CDB7DEB720913301909196
S11306D0320181E0291709F080E0DF91CF9108957C
S11306E0CF93DF93CDB7DEB789EB90E0FC011082A6
S11306F088EB90E028E4FC0120830000DF91CF9197
S11307000895CF93DF9300D0CDB7DEB78A838CEB07
S113071090E024EAFC01208300008CEB90E0FC01D3
S113072080818823D4F789EB90E0FC018081887F65
S113073089838981883029F08981803111F081E0B1
S113074020C08BEB90E02A81FC0120838CEB90E0AD
S113075024E8FC01208300008CEB90E0FC01808104
S11307608823D4F789EB90E0FC018081887F89831A
S11307708981883129F08981803411F081E001C0B8
S113078080E00F900F90DF91CF910895CF93DF9386
S113079000D0CDB7DEB78A838BEB90E02A81FC01D1
S11307A020838CEB90E024E8FC01208300008CEB98
S11307B090E0FC0180818823D4F789EB90E0FC0170
S11307C08081887F89838981883211F081E001C02A
S11307D080E00F900F90DF91CF910895CF93DF9336
S11307E0CDB7DEB78CEB90E024ECFC012083000055
S11307F08CEB90E0FC0180818823D4F78BEB90E0B4
S1130800FC018081DF91CF910895CF93DF93CDB721
S1130810DEB78CEB90E024E8FC01208300008CEB35
S113082090E0FC0180818823D4F78BEB90E0FC01FD
S11308308081DF91CF910895CF93DF931F92CDB73D
S1130840DEB7898399818DEC989F812D112486953B
S113085086958695880F282F220F220F820F292F25
S1130860281B822F282F99818DEC989F812D11248C
S1130870869586958695882F90E082959295907FAF
S11308809827807F9827822B0F90DF91CF9108952E
S1130890CF93DF931F92CDB7DEB789838981982FD9
S11308A09F70898182958F70880F282F220F220FC5
S11308B0820F890F0F90DF91CF91089597FB072E38
S11308C016F4009407D077FD09D00E948D0407FC2C
S11308D005D03EF4909581959F4F0895709561954C
S11308E07F4F08952A88398848885F846E847D8480
S11308F08C849B84AA84B984C884DF80EE80FD80C4
S11309000C811B81AA81B981CE0FD11D0FB6F89439
S1130910DEBF0FBECDBFED010895AA1BBB1B51E185
S113092007C0AA1FBB1FA617B70710F0A61BB70B5B
S1130930881F991F5A95A9F780959095BC01CD0100
S10909400895F894FFCFB6
S1130946740147657474696E672074696D65206601
S1130956726F6D2050432E2052756E2069736F742A
S1130966696D652E7662730A000A00426565700A2F
S105097600007B
S9030000FC
