:100000000C94C6000C94E3000C94E3000C94E30001
:100010000C94E3000C94E3000C94E3000C94E300D4
:100020000C94E3000C94E3000C94E3000C945E0148
:100030000C94E3000C94E3000C94E3000C94E300B4
:100040000C94E3000C94E3000C94FF030C94E30085
:100050000C94E3000C94E3000C94E3000C94E30094
:100060000C94E3000C94E300DC01010201020102A4
:100070000102CE01EE01C1010102010201020102F1
:100080000102010201020102010201020102010258
:100090000102010201020102010201020102010248
:1000A0000102010201020102DC010102010201025E
:1000B0000102CE01EE01C1012A2A2A2A2A2A2A2A6D
:1000C0002A2A2A2A2A2A2A2A2A2A2A2A2A2A2A2A90
:1000D0002A2A2A2A2A2A2A2A2A2A2A2A2A0D0A5097
:1000E0007265737320616E79206F66207468657322
:1000F00065206B6579733B0D0A20202054202D204C
:100100004765742074696D652066726F6D20504379
:1001100020616E6420736574205254432E0D0A20B2
:10012000202052202D2052756E20616E6420636F56
:100130006C6C65637420646174612E0D0A2020204C
:1001400053202D205072696E742063757272656E33
:10015000742074696D65206F6E2074686520525438
:10016000432E0D0A2A2A2A2A2A2A2A2A2A2A2A2A0F
:100170002A2A2A2A2A2A2A2A2A2A2A2A2A2A2A2ADF
:100180002A2A2A2A2A2A2A2A2A0D0A0011241FBECC
:10019000CFEFD8E0DEBFCDBF11E0A0E0B1E0E4E0FA
:1001A000FEE002C005900D92A637B107D9F721E015
:1001B000A6E7B1E001C01D92A23DB207E1F70E949F
:1001C00071010C9400070C94000060910001709183
:1001D00001010E94F00080910001909101010895B9
:1001E000EF92FF920F931F93CF93DF938C01EB015C
:1001F000FC01868197818459984F64E670E00E94E3
:10020000BD069B017C014DE2BE01C9010E944C016B
:10021000BE016E5F7F4F4DE2C7010E944C01BE01DF
:100220006B5F7F4FF8018581082E000C990B4DE222
:1002300001960E944C01BE01685F7F4FF8018381E7
:1002400040E2082E000C990B0E944C01BE01655F34
:100250007F4FF80182814AE3082E000C990B0E941F
:100260004C01BE01625F7F4FF80181814AE3082E95
:10027000000C990B0E944C01BE016F5E7F4FF8018C
:10028000808140E0082E000C990B0E944C01CDB7F4
:10029000DEB7E6E00C94DD061F93CF93DF93EB010E
:1002A000142F6AE070E00E94BD06605D6883805D87
:1002B00089831A83DF91CF911F9108951F920F9226
:1002C00000905F000F921124CF93DF93CDB7DEB77C
:1002D0000000DF91CF910F9000925F000F901F9070
:1002E0001895CF93DF93CDB7DEB72F970FB6F8945D
:1002F000DEBF0FBECDBF8CE790E020E4FC01208381
:100300008BE790E0FC0110828AE790E020ECFC0192
:10031000208380E890E0FC01108288E890E024E2ED
:1003200034EFFC013183208381E890E021E830E064
:10033000F90120812C60FC0120830E9444040E946A
:100340002E0578940E9408020E941F058823E1F779
:100350000E94F90489838981882F90E0092E000C7E
:10036000AA0BBB0B4DE450E027E230E0841B950B59
:100370002817390708F445C08C5C9F4FFC010C948A
:10038000910682E091E00E94CD04CE0104960E9485
:100390001402CE0104960E94430339C08AE291E020
:1003A0000E94CD048FE690E02FE630E0F901208135
:1003B0002260FC0120832BC08FE690E0FC0180814D
:1003C0008FE690E02FE630E0F90120812D7FFC01DF
:1003D00020838CE391E00E94CD0419C0CE010496E5
:1003E0000E94B703CE0104960E94E5009B838A8396
:1003F0008A819B810E94CD048AE491E00E94CD0411
:1004000006C08DE491E00E94CD040E9438049CCF88
:10041000CF93DF93CDB7DEB788EB90E00E947C04EA
:100420000000DF91CF910895CF93DF93CDB7DEB772
:10043000A2970FB6F894DEBF0FBECDBF9AA389A3D3
:100440001A8219821CC00E94F904482F9E01235F62
:100450003F4F89819A81820F931FFC0140839E0147
:10046000235F3F4F89819A81820F931FFC01808116
:100470000E94B20489819A8101969A838983898135
:100480009A81049704F30E94F9041C821B821CC009
:100490000E94F904482F9E012E5E3F4F8B819C8164
:1004A000820F931FFC0140839E012E5E3F4F8B8184
:1004B0009C81820F931FFC0180810E94B2048B817A
:1004C0009C8101969C838B838B819C81029704F392
:1004D0000E94F9041E821D821CC00E94F904482F4C
:1004E0009E012B5E3F4F8D819E81820F931FFC01E9
:1004F00040839E012B5E3F4F8D819E81820F931F13
:10050000FC0180810E94B2048D819E8101969E83B0
:100510008D838D819E81029704F30E94F9041886D1
:100520001F821CC00E94F904482F9E01285E3F4F85
:100530008F819885820F931FFC0140839E01285E66
:100540003F4F8F819885820F931FFC0180810E940D
:10055000B2048F819885019698878F838F819885C3
:10056000029704F30E94F9041A8619861CC00E949F
:10057000F904482F9E01255E3F4F89859A85820F99
:10058000931FFC0140839E01255E3F4F89859A851C
:10059000820F931FFC0180810E94B20489859A8595
:1005A00001969A87898789859A85029704F30E9424
:1005B000F9041C861B861CC00E94F904482F9E016A
:1005C000225E3F4F8B859C85820F931FFC014083E9
:1005D0009E01225E3F4F8B859C85820F931FFC01FD
:1005E00080810E94B2048B859C8501969C878B87B5
:1005F0008B859C85029704F30E94F9040E94F904FC
:10060000CE010D960E9497069C012C56374089A179
:100610009AA1FC0137832683CE0142960E94970659
:10062000282F89A19AA1FC012583CE0145960E941D
:100630009706282F89A19AA1FC012383CE01489611
:100640000E949706282F89A19AA1FC012283CE013E
:100650004B960E949706282F89A19AA1FC0121831D
:10066000CE014E960E949706282F89A19AA1FC01DF
:1006700020830000A2960FB6F894DEBF0FBECDBF58
:10068000DF91CF9108951F93CF93DF9300D0CDB723
:10069000DEB79A83898380EA0E948C0580E00E94FD
:1006A000F90580E80E94F9050E94E10581E60E94B3
:1006B000B20480EA0E948C0582E00E94F9058981DB
:1006C0009A81FC0180810E944F060E94F905898170
:1006D0009A81FC0181810E944F060E94F90589815F
:1006E0009A81FC0182810E944F068F730E94F90556
:1006F00089819A81FC01868197810024969587954E
:100700000794969587950794982F802D182F8981A7
:100710009A81FC01808591850E944F06810F0E947D
:10072000F90589819A81FC0185810E944F060E940A
:10073000F9050E94E10582E60E94B20480EA0E9467
:100740008C0580E00E94F90580E00E94F9050E9476
:10075000E10583E60E94B2048AE491E00E94CD04A0
:1007600000000F900F90DF91CF911F910895CF93CC
:10077000DF9300D0CDB7DEB79A83898380EA0E94E9
:100780003F0582E00E94F9050E94E10581EA0E948E
:100790003F050E9421060E947B06282F89819A81AD
:1007A000FC0120830E9421060E947B06282F89815C
:1007B0009A81FC0121830E9421060E947B06282F3A
:1007C00089819A81FC0122830E9421068F730E94F5
:1007D0007B06282F30E089819A81FC0131872087B0
:1007E0000E9438060E947B06282F89819A81FC018D
:1007F000258300000F900F90DF91CF9108951F92F5
:100800000F9200905F000F9211242F938F939F936C
:10081000EF93FF93CF93DF931F92CDB7DEB786ECB4
:1008200090E0FC018081898380917601882F90E09F
:1008300088589E4F2981FC012083809176018F3357
:1008400019F41092760105C0809176018F5F809334
:10085000760100000F90DF91CF91FF91EF919F9172
:100860008F912F910F9000925F000F901F9018951D
:10087000CF93DF93CDB7DEB7809176018093770178
:100880000000DF91CF910895CF93DF9300D0CDB7D3
:10089000DEB787E690E09A83898385EC90E0FC01DF
:1008A000108284EC90E02981FC01208381EC90E0AF
:1008B00028E9FC01208382EC90E026E0FC01208303
:1008C0008AE290E02AE230E0F90120812260FC0116
:1008D00020838AE290E02AE230E0F90120812E7F35
:1008E000FC012083109276011092770100000F9096
:1008F0000F90DF91CF910895CF93DF93CDB7DEB7FF
:1009000029970FB6F894DEBF0FBECDBF99878887B1
:1009100013C0888599859C012F5F3F4F39872887B1
:100920009D838C838C819D81FC0184918E838E813B
:100930008F838F810E94B204888599859A838983E9
:1009400089819A81FC0184918B838B81882309F7AB
:10095000000029960FB6F894DEBF0FBECDBFDF9121
:10096000CF910895CF93DF931F92CDB7DEB78983E0
:10097000000080EC90E0FC018081882F90E0807284
:100980009927892BB1F386EC90E02981FC01208323
:1009900000000F90DF91CF910895CF93DF9300D0A7
:1009A000CDB7DEB79A83898318C0000080EC90E051
:1009B000FC018081882F90E080729927892BB1F308
:1009C00026EC30E089819A81AC014F5F5F4F5A83FA
:1009D0004983FC018081F901808389819A81FC012E
:1009E0008081882311F700000F900F90DF91CF9145
:1009F0000895CF93DF931F92CDB7DEB7000090919B
:100A00007701809176019817D1F380917701882F33
:100A100090E088589E4FFC01808189838091770106
:100A20008F3319F41092770105C0809177018F5FA1
:100A30008093770189810F90DF91CF910895CF93B3
:100A4000DF93CDB7DEB7209177019091760181E0F9
:100A5000291709F080E0DF91CF910895CF93DF93BC
:100A6000CDB7DEB789EB90E0FC01108288EB90E017
:100A700028E4FC0120830000DF91CF910895CF93FB
:100A8000DF9300D0CDB7DEB78A838CEB90E024EA09
:100A9000FC01208384E591E00E94CD0400008CEBF2
:100AA00090E0FC0180818823D4F787E691E00E94E2
:100AB000CD0489EB90E0FC018081887F8983898166
:100AC000883029F08981803111F081E020C08BEBE2
:100AD00090E02A81FC0120838CEB90E024E8FC016B
:100AE000208300008CEB90E0FC0180818823D4F708
:100AF00089EB90E0FC018081887F8983898188313E
:100B000029F08981803411F081E001C080E00F90EC
:100B10000F90DF91CF910895CF93DF9300D0CDB7A1
:100B2000DEB78A838CEB90E024EAFC01208300008E
:100B30008CEB90E0FC0180818823D4F789EB90E076
:100B4000FC018081887F89838981883019F08981BF
:100B5000803171F58BEB90E02A81FC0120838CEBD6
:100B600090E024E8FC01208300008CEB90E0FC0185
:100B700080818823D4F789EB90E0FC018081887F15
:100B800089838981803219F08981883599F48CEBC9
:100B900090E024E9FC01208300008CEB90E0FC0154
:100BA0008081882F90E080719927892BB1F701C04F
:100BB0000000B8CF000000000F900F90DF91CF91A0
:100BC0000895CF93DF93CDB7DEB78CEB90E024E9A7
:100BD000FC01208300008CEB90E0FC018081882FD9
:100BE00090E080719927892BB1F70000DF91CF91B8
:100BF0000895CF93DF9300D0CDB7DEB78A838BEB18
:100C000090E02A81FC0120838CEB90E024E8FC0139
:100C1000208300008CEB90E0FC0180818823D4F7D6
:100C200089EB90E0FC018081887F8983898188320B
:100C300011F081E001C080E00F900F90DF91CF9123
:100C40000895CF93DF93CDB7DEB78CEB90E024EC23
:100C5000FC01208300008CEB90E0FC018081882364
:100C6000D4F78BEB90E0FC018081DF91CF91089568
:100C7000CF93DF93CDB7DEB78CEB90E024E8FC0197
:100C8000208300008CEB90E0FC0180818823D4F766
:100C90008BEB90E0FC018081DF91CF910895CF93A1
:100CA000DF931F92CDB7DEB7898399818DEC989F32
:100CB000812D1124869586958695880F282F220FE1
:100CC000220F820F292F281B822F282F99818DEC2C
:100CD000989F812D1124869586958695882F90E082
:100CE00082959295907F9827807F9827822B0F90EE
:100CF000DF91CF910895CF93DF931F92CDB7DEB7E9
:100D000089838981982F9F70898182958F70880F40
:100D1000282F220F220F820F890F0F90DF91CF9182
:100D20000895EE0FFF1F0590F491E02D0994FC014A
:100D300088279927E89421912032E9F3293010F08F
:100D40002E30C8F32B3241F02D3239F4689404C0B0
:100D50000E94B506820F911D219120532A30C0F3C5
:100D60001EF4909581959F4F08957AE0979F902D5E
:100D7000879F802D910D1124089597FB072E16F45F
:100D8000009407D077FD09D00E94EC0607FC05D03F
:100D90003EF4909581959F4F0895709561957F4F92
:100DA00008952A88398848885F846E847D848C847D
:100DB0009B84AA84B984C884DF80EE80FD800C8186
:100DC0001B81AA81B981CE0FD11D0FB6F894DEBF69
:100DD0000FBECDBFED010895AA1BBB1B51E107C09B
:100DE000AA1FBB1FA617B70710F0A61BB70B881FBB
:100DF000991F5A95A9F780959095BC01CD0108954A
:040E0000F894FFCF94
:100E0400B80147657474696E672074696D652066FE
:100E1400726F6D2050432E2052756E2069736F746B
:100E2400696D652E7662730D0A005374617274697C
:100E34006E67206C6F672E2E2E0D0A00456E646956
:100E44006E67206C6F672E0D0A000D0A00426565FF
:100E5400700D0A0053656E64696E672053544152E5
:100E6400542E2E2E0D0A0053544152542073656E95
:060E740074210D0A0000CC
:00000001FF
